:100000000C9470060C94B7060C94B7060C94B706C3
:100010000C94B7060C94B7060C94B7060C94B7066C
:100020000C94B7060C94B7060C94C8270C949A2825
:100030000C940D1B0C94B7060C94B7060C94B706E1
:100040000C94B7060C94B7060C94B7060C94B7063C
:100050000C94B7060C94811B0C94B7060C94B7064D
:100060000C94B7060C94B7060C94B7060C94B7061C
:100070000C94B7060C94B7060C94B7060C94B7060C
:100080000C94B7060C94B7060C94B7060C94B706FC
:100090000C94B7060C94B7060C94B7060C94B706EC
:1000A0000C94B7060C94B7060C94B70643084508A1
:1000B0005008470849084B084D084F085208540893
:1000C0005608610858085A085C085E08600863080A
:1000D000A810A810DA10DA1018113811A812A812F6
:1000E0007A11A812271227129812A812A812A11288
:1000F00034123412341234123412341234123412D0
:1001000034123412341234123412341234123412BF
:10011000451253125A1261126B12371337134913D7
:100120004913401349134913491337133713451320
:1001300049134913451307292E29202A2E29202A3D
:100140007A299D29202AF329022A14001A0008007E
:100150001500170000001C0018000C00120013000E
:1001600004001600070009000A0000000B000D0043
:100170000E000F0033001D001B00060019000500D3
:10018000E2001100100036003700380029002B0073
:10019000E300E1002A00E0002C0001582D003400AB
:1001A00028001E021F02520022022302000000004B
:1001B00024002500260055002002500051004F0069
:1001C00026020000270221002200230057003500EC
:1001D0000000210224022F00E20030001E001F0058
:1001E0002000310002532B00E300E1004C00E0004E
:1001F0002C000100370027002E0049004A00520061
:100200004D004B00000052004000410042004300FE
:100210004C00500051004F004E00000051003D00C6
:100220003E003F004400A800A90000000000005C60
:10023000E20000003A003B003C0045000100AA003B
:10024000E300E1002A00E0002C0010500000000054
:10025000135034003600370013001C000000090062
:100260000A00060015000F00040012000800180024
:100270000C00000007000B001700110016003300EF
:1002800014000D000E001B00E200050010001A0013
:1002900019001D0029002B00E300E1002A00E00006
:1002A0002C0004512D00380028001E021F025200AD
:1002B0002F02300200004B002400250026005500CC
:1002C0002002500051004F00210200004E0021008A
:1002D0002200230057002F003000260227022402AC
:1002E000E20035001E001F002000310010502B00DE
:1002F000E300E1004C00E0002C0001003700270083
:100300002E0044454255473A20656E61626C656433
:100310002E0A000A002530313662003A20002530CE
:100320003258000A722F6320303132333435363779
:1003300038394142434445460A000A0025303258C4
:1003400020006B6579626F6172645F7265706F72B5
:10035000743A20000A0025303258006B6579626FCC
:100360006172645F7365745F6C65643A20006465F4
:100370006C5F6B65795F6269743A2063616E2774A4
:100380002064656C3A20253032580A006164645F4D
:100390006B65795F6269743A2063616E27742061CE
:1003A00064643A20253032580A00290A0025750075
:1003B0002F002575005D28002564002000256400BD
:1003C000200025640020002564007C002530325880
:1003D000006D6F7573656B6579205B62746E7C78F8
:1003E0002079207620685D287265702F61636C2902
:1003F0003A205B006D6B5F776865656C5F74696D53
:10040000655F746F5F6D6178203D2025640A006D23
:100410006B5F776865656C5F6D61785F737065654C
:1004200064203D2025640A006D6B5F74696D655F13
:10043000746F5F6D6178203D2025640A006D6B5FED
:100440006D61785F7370656564203D2025640A00E6
:100450006D6B5F696E74657276616C203D202564FA
:100460000A006D6B5F64656C6179203D2025640A2C
:10047000006D6B5F776865656C5F74696D655F744F
:100480006F5F6D6178203D2025640A006D6B5F779A
:100490006865656C5F6D61785F7370656564203D4C
:1004A0002025640A006D6B5F74696D655F746F5F12
:1004B0006D6178203D2025640A006D6B5F6D617869
:1004C0005F7370656564203D2025640A006D6B5F75
:1004D000696E74657276616C203D2025640A006D3A
:1004E0006B5F64656C6179203D2025640A000A0019
:1004F000257500363A20776865656C5F74696D65AF
:100500005F746F5F6D61783A20000A0025750035D1
:100510003A20776865656C5F6D61785F73706565BB
:10052000643A20000A00257500343A2074696D652C
:100530005F746F5F6D61783A20000A0025750033A3
:100540003A206D61785F73706565643A20000A0037
:10055000257500323A20696E74657276616C286D7B
:1005600073293A20000A00257500313A2064656C31
:100570006179282A31306D73293A20000A092D202B
:1005800056616C756573202D0A004D3E004D256443
:100590003E20003F007365742064656661756C746D
:1005A0000A00433E200077686572652064656C74BC
:1005B000613A20637572736F723D25642C207768F1
:1005C00065656C3D25640A53656520687474703AEE
:1005D0002F2F656E2E77696B6970656469612E6F68
:1005E00072672F77696B692F4D6F7573655F6B65E8
:1005F00079730A000A092D204D6F7573656B657953
:10060000202D0A4553432F713A09717569740A31D7
:100610003A0964656C6179282A31306D73290A3290
:100620003A09696E74657276616C286D73290A33B4
:100630003A096D61785F73706565640A343A0974CC
:10064000696D655F746F5F6D61780A353A09776827
:1006500065656C5F6D61785F73706565640A363AD5
:1006600009776865656C5F74696D655F746F5F6D50
:1006700061780A0A703A097072696E742076616C4A
:100680007565730A643A09736574206465666175FB
:100690006C74730A75703A092B310A646F776E3A7D
:1006A000092D310A706775703A092B31300A70676D
:1006B000646F776E3A092D31300A0A73706565648C
:1006C000203D2064656C7461202A206D61785F7321
:1006D00070656564202A2028726570656174202F1A
:1006E0002074696D655F746F5F6D6178290A003FE2
:1006F000004D3E2000433E20004C25640A007469F2
:100700006D65725F72656164333228293A20253045
:10071000346C580A006B65796D61705F636F6E664B
:1007200069672E6E6B726F3A2025580A006B6579E7
:10073000626F6172645F69646C653A2025580A00D3
:100740006B6579626F6172645F70726F746F636FF3
:100750006C3A2025580A00686F73745F6B65796284
:100760006F6172645F6C65647328293A2025580AAA
:10077000000A092D20537461747573202D0A0047F7
:1007800043433A20342E392E32204156522D4C49C3
:1007900042433A20312E382E3073766E2041565225
:1007A0005F415243483A20617672350A004F5054F7
:1007B000494F4E533A204C554641204D4F555345D5
:1007C0004B45592045585452414B455920434F4EB3
:1007D000534F4C4520434F4D4D414E44204E4B52BC
:1007E0004F20343039360A004255494C443A2022D1
:1007F000302E362E3230332D382D6762313163334F
:100800003322202830313A35303A31342044656380
:100810002031372032303138290A005649443A20F5
:1008200030783132303928546563686E6F6D616E8F
:10083000637929205049443A2030784131453528A0
:1008400041747265757329205645523A20307830CC
:100850003030380A00444553433A20712E6D2E6BD8
:100860002E206B6579626F617264206669726D77A4
:1008700061726520666F72204174726575730A003B
:100880000A092D2056657273696F6E202D0A000AC1
:10089000092D20436F6E736F6C65202D0A455343FD
:1008A0002F713A09717569740A6D3A096D6F757324
:1008B000656B65790A000A092D204D61676963201F
:1008C0002D0A443A094465627567204D657373616A
:1008D000676520546F67676C650A583A094D617403
:1008E000726978204465627567204D6F6465205495
:1008F0006F67676C65202D2053686F77206B657973
:100900007072657373657320696E206D61747269AE
:100910007820677269640A4B3A094B6579626F61A6
:10092000726420446562756720546F67676C652048
:100930002D2053686F77206B657970726573732013
:100940007265706F72740A4D3A094465627567206A
:100950004D6F75736520546F67676C650A563A0969
:1009600056657273696F6E0A533A095374617475F0
:10097000730A433A09416374697661746520436F71
:100980006E736F6C65204D6F64650A46312D46317C
:10099000303A0953776974636820746F204C617929
:1009A000657220302D392028463130203D204C30D2
:1009B000290A302D393A0953776974636820746FB6
:1009C000204C6179657220302D390A4553433A092C
:1009D00053776974636820746F204C617965722065
:1009E000302028616C7465726E617465206B657966
:1009F0002031290A47524156453A095377697463B1
:100A00006820746F204C6179657220302028616CF9
:100A10007465726E617465206B65792032290A50A5
:100A2000415553453A094A756D7020746F20426FE5
:100A30006F746C6F616465722028526573657429E8
:100A40000A4E3A094E4B524F20546F67676C650A45
:100A5000003F004E4B524F3A206F66660A004E4BE5
:100A6000524F3A206F6E0A000A6D6F7573653A2017
:100A70006F66660A000A6D6F7573653A206F6E0ABD
:100A8000000A6B6579626F6172643A206F66660A6C
:100A9000000A6B6579626F6172643A206F6E0A00BA
:100AA0000A6D61747269783A206F66660A000A6D91
:100AB00061747269783A206F6E0A000A6465627523
:100AC000673A206F66660A000A64656275673A20B5
:100AD0006F6E0A000A0A4A756D70696E6720746F3E
:100AE00020626F6F746C6F616465722E2E2E200011
:100AF000433E20005B735D004B6579626F617264F9
:100B00002073746172742E0A005B575D005B535D45
:100B1000005B525D005B445D005B435D000403309D
:100B20000000000E03410074007200650075007340
:100B3000000000180354006500630068006E006F39
:100B4000006D0061006E006300790000000403097D
:100B50000409025B00030100A0FA0904000001037C
:100B60000101000921110100012240000705810354
:100B700008000A0904010001030000000921110115
:100B8000000122C0000705820320000A09040200B8
:100B900002030000000921110100012222000705C3
:100BA0008303200001070503032000011201100147
:100BB000000000080912E5A1080001020301063146
:100BC000FF0974A1010975150026FF00952075081D
:100BD00081020976150026FF00952075089102C054
:100BE00005010902A10185020901A10005091901F8
:100BF00029051500250195057501810295017503EB
:100C000081010501093009311581257F950275089B
:100C1000810609381581257F950175088106050C27
:100C20000A38021581257F950175088106C0C00527
:100C3000010980A10185031601002603001A810025
:100C40002A8300751095018100C0050C0901A101DE
:100C50008504160100269C021A01002A9C027510C8
:100C600095018100C005010906A101850505071947
:100C7000E029E7150025019508750181020508198D
:100C800001290595057501910295017503910105ED
:100C900007190029EF1500250195F075018102C0A3
:100CA00005010906A101050719E029E7150025013D
:100CB00095087501810295017508810105081901E2
:100CC00029059505750191029501750391010507A7
:100CD000190029FF150026FF00950675088100C040
:100CE00011241FBECFEFDAE0DEBFCDBF04B603FE96
:100CF00027C08091340290913502A0913602B091C4
:100D000037028730904BA740B04BD1F41092340299
:100D100010923502109236021092370214BE84B738
:100D2000877F84BF0FB6F894A89580916000886192
:100D300080936000109260000FBEE0E0F8E3099538
:100D400011E0A0E0B1E0E2EAF5E502C005900D9205
:100D5000AC33B107D9F722E0ACE3B1E001C01D929A
:100D6000A433B207E1F70E94E3240C94CF2A0C9439
:100D70000000FF93EF93E0913C01F0913D0130972B
:100D800009F00995EF91FF910895FC01859180305C
:100D900011F0EFDFFBCF0895FF27E0E230E247FFDD
:100DA0000CC0419597FF09C0EDE260957095809564
:100DB0009095611D711D811D911D27FF02C0219518
:100DC00030E350E2AA27660F771F881F991FAA1FDA
:100DD000A41710F0A41B63955A95A9F7AA3008F040
:100DE000A95FA05DAF93F39561157105810591052C
:100DF00041F7ED3211F4EF93F395F21718F43F93A6
:100E0000F395FBCF8F91B5DFFA95E1F70895E9915E
:100E1000F9918591803021F0853219F0AADFF9CF60
:100E2000089520E0E89455915532C1F3503311F400
:100E3000689455915A3348F4505390F3220F022E80
:100E4000220F220F200D250FF4CF0EF4219589914A
:100E50009991533619F3533729F1533559F1BC01A0
:100E600088279927E8945C3621F4899199916894B0
:100E70005591543639F446EF7EF077FF0DC08FEF71
:100E80009FEF0AC055374AE039F0583540E121F06C
:100E9000523642E009F00895FF93EF937DDFEF9122
:100EA000FF91B7CFFF93EF93FC0181918030B9F3AD
:100EB00060DFFBCFFF93EF9368DFF1CFDF93CF933A
:100EC000CDB7DEB72596A3DFCF91DF91089581E0FE
:100ED000089581E008950C9469070E949919811181
:100EE00002C00E94071A0C94830B0C94860B089581
:100EF0000C9477070C94780708950E9425130E949C
:100F00007C072FEF84E39CE0215080409040E1F784
:100F100000C0000087E797E79093010880930008DE
:100F20000C94A71BFF920F931F93CF93DF938C0119
:100F3000FC01C081D18180916701811113C0828140
:100F4000882349F0CE010E945718F82E682FCE0151
:100F50000E94FC1704C0CE010E942B18F82EBE017F
:100F60008F2D04C0CE010E945718BE010E941709A0
:100F7000EC01B8010E946B07882309F44DC1C63DFE
:100F8000FCE5DF0709F4AFC0B0F4C531ECE5DE07DE
:100F900068F4C230FCE5DF0708F053C0C1158CE5EA
:100FA000D80701F1C130DC4529F129C1C631DC4542
:100FB00009F4FEC024C1CB3D8CE5D80791F150F473
:100FC000C73DFCE5DF0709F4B1C0C83DDC4509F4C5
:100FD000D4C015C1CC3DECE5DE0751F1CD3DDC457B
:100FE000C1F00DC1F8018281882309F415C10E9466
:100FF0007D0712C1F8018281882309F40DC1809117
:10100000EB0181608093EB0182E093E00E94C506D2
:1010100003C1F8018281882309F4FEC00E94071AE7
:10102000FBC0F8018281882309F4F6C080E006C085
:10103000F8018281882309F4EFC082E00E948B25A9
:10104000EBC0F8018281882309F4DEC00E9499195F
:10105000811102C00E94071A0E94AC1990E090937F
:10106000260280932502FE01E350FC45E231F105A2
:1010700030F4EA5AFF4F809125020C94732A809134
:101080002502816027C0826025C0846023C0806102
:1010900021C080621FC080641DC080681BC0846046
:1010A000886018C08E7F16C08D7F14C08B7F12C0E1
:1010B0008F7E10C08F7D0EC08F7B0CC08F770AC0D3
:1010C0008B7F877F07C087FB222720F991E092273B
:1010D00090FB87F980932502809125020E94B01928
:1010E0000E94251399C0F8018281882351F0109243
:1010F00043010E943F1B9093400180933F0182E097
:1011000022C08091430181110FC080913F019091D5
:1011100040010E94571B883C910530F486E20E94F2
:10112000C30E86E20E94FC0F82E024C0F801828197
:10113000882361F0109244010E943F1B909342016A
:101140008093410180E20E94641066C08091440156
:1011500081110FC080914101909142010E94571B63
:10116000883C910530F487E20E94C30E87E20E941A
:10117000FC0F80E20E946B104FC0F8018281811148
:10118000D9CF809144018111F4CF80914101909198
:1011900042010E94571B883C910558F780E20E944B
:1011A0006B1088E20E94C30E88E20E94FC0F34C0DC
:1011B0000E942819282FF801828140910001509146
:1011C0000101882379F02A7A91E009F490E0909364
:1011D0003E01911102C069E201C065E3CA010E94AB
:1011E000901A0AC080913E01811102C069E201C0DB
:1011F00065E3CA010E949B1A0E94F5180DC081E0A8
:101200008093430180934401C801DF91CF911F91E6
:101210000F91FF900C94670780E0DF91CF911F91B1
:101220000F91FF90089580E090E0089508959BE06D
:10123000799FF00111249CE2899FE00DF11D11249A
:10124000E60FF11DEE0FFF1FE65BFE4F85919491B7
:101250000895880F991FFC01ED5EFC4F85919491D4
:101260000895CF93DF930E9417090E94E20AEC01D0
:10127000811520E59207F0F5811530E4930708F019
:1012800020C1883E910500F5803E910508F096C189
:10129000883A910570F4853A910508F09AC081303A
:1012A000910509F48BC108F43CC1049708F086C18C
:1012B00038C18F3B910508F497C0803C910508F434
:1012C00030C1805C9109EFC08115904258F4C1157E
:1012D00081E0D80708F072C1C03FD10508F421C1F0
:1012E000D0656CC1C11590E3D90708F0E0C0CE010C
:1012F0009F70D9C0811525E5920708F043C081157C
:1013000034E5930708F0F4C0811542E5940708F529
:10131000C11581E5D80708F0D7C02C2F237081E0D4
:1013200090E002C0880F991F2A95E2F79C689E0101
:1013300074E0369527957A95E1F72370922BCF705C
:10134000C695C69530E2C39FE0011124C82BD92B66
:1013500035C1869586959E0123703327C115D345E7
:1013600008F0B7C040E2849FC0011124C1E0D0E082
:1013700002C0CC0FDD1F2A95E2F78C2B9D2BEC01D0
:10138000DC681CC1811529E5920778F4811538E5E0
:10139000930708F0B2C08115964508F0C2C0CF711E
:1013A000DD27DC2FCC27D06209C1C1158AE5D8071B
:1013B00008F4A8C0CE0190568115904208F0B1C043
:1013C0008D2F8F710E945F0BDD27D0628F71D82B1C
:1013D000F5C0853A910509F4A7C0863A910509F050
:1013E000A6C0C2E8D0E4EAC0883A910509F4A2C0D8
:1013F000893A910509F4A1C08A3A910509F4A0C07F
:101400008B3A910509F49FC08C3A910509F49EC06E
:101410008B3B910509F49DC08C3B910509F49CC060
:101420008D3A910509F49BC0803B910509F49AC05F
:101430008E3A910509F499C08F3A910509F498C044
:10144000813B910509F497C0823B910509F496C050
:10145000833B910509F495C0843B910509F494C040
:10146000853B910509F493C0863B910509F492C030
:10147000873B910509F491C0883B910509F490C020
:10148000893B910509F48FC08D3B910509F48EC00D
:101490008E3B910509F48DC08A3B910509F48CC0FF
:1014A000C0E0D4E48BC00E942909EC0187C0CE01C2
:1014B0009927D3FF03C0EC01D86C80C0EC01D06C3D
:1014C0007DC0DF70D06A7AC0DC2FCC27C16FD06AB4
:1014D00075C040E2849FC0011124C1E0D0E002C089
:1014E000CC0FDD1F2A95E2F7C82BD92BDA6866C02E
:1014F000D82FCC27C46FD06A61C0D82FCC27C06F3B
:10150000D06A5CC08C2F8F70806E90E0906A24E06F
:10151000D695C7952A95E1F7CF709C013C2BE90140
:101520004DC0C0E0D0E04AC0C1E8D0E447C0C3E845
:10153000D0E444C0C2EED4E441C0C9EED4E43EC01D
:10154000CAEED4E43BC0C5EBD4E438C0C6EBD4E467
:1015500035C0C3EBD4E432C0C4EBD4E42FC0C7EB36
:10156000D4E42CC0CCECD4E429C0CDECD4E426C027
:10157000C3E8D5E423C0CAE8D5E420C0C2E9D5E475
:101580001DC0C4E9D5E41AC0C1E2D6E417C0C3E265
:10159000D6E414C0C4E2D6E411C0C5E2D6E40EC05D
:1015A000C6E2D6E40BC0C7E2D6E408C0CFE6D4E476
:1015B00005C0C0E7D4E402C0CAE2D6E4CE01DF91A0
:1015C000CF9108958238910549F1B0F481339105A6
:1015D00009F458C048F48932910509F44EC08A32A2
:1015E000910509F454C008958533910509F440C06C
:1015F0008933910599F00895833E910529F138F4D6
:10160000803E910591F0823E9105A1F00895863EBD
:101610009105F9F0873E910531F108952091250259
:1016200020FD3AC021FD38C008958091250280FD3B
:1016300035C032C08091250282FF32C080912502E0
:1016400084FD30C083EE39C08091250282FD28C020
:10165000F5CF8091250283FF27C08091250284FD6C
:1016600021C087EE2AC08091250283FD1DC0F5CFE1
:101670008091250285FD1AC01BC08091250285FD41
:1016800017C014C08091250286FD14C015C080913A
:10169000250286FD11C00EC080EE0FC089E30DC08B
:1016A00082EE0BC080E009C086EE07C089E205C06B
:1016B00085E303C08AE201C081E390E00895909140
:1016C000250292FF0DC0282F2871283019F4877F3A
:1016D000846006C0282F2471243011F48B7F886029
:1016E00093FF0DC0282F2871283119F4877E84615B
:1016F00006C0282F2471243111F48B7E886194FD5B
:10170000877E089508950C94820B08950C94850BA0
:10171000EEE1F1E041E050E024E02E0F9191A92F9D
:10172000A295AF70B0E091963C9191979F70BA01ED
:1017300002C0660F771F9A95E2F7CB01809583234D
:1017400091968C932E13EACFA3E1B1E041E050E0F3
:101750002BE02A0F8D91E82FE295EF70F0E031A198
:101760008F70BA0102C0660F771F8A95E2F7CB012E
:10177000962F9095932391A392A1892B82A32A134C
:10178000E9CF10924E0110924D0110924601109235
:1017900045011092500110924F0110924801109291
:1017A0004701109252011092510110924A01109279
:1017B0004901109254011092530110924C01109261
:1017C0004B010C946D074F925F927F928F929F9284
:1017D000AF92BF92CF92DF92EF92FF920F931F933F
:1017E000CF93DF932EE1E22E21E0F22EC5E4D1E08B
:1017F00001E010E0992493946E01A880B9801982C9
:101800001882D7018D917D01E82FE295EF70F0E00D
:1018100021A18F70A80102C0440F551F8A95E2F7DD
:10182000CA01242B21A322A1842E8094282122A343
:1018300050EA5A95F1F793E1492E91E0592E20E0B4
:1018400030E0D2017D912D01472F42954F7050E03D
:10185000DA0190967C90488159817F70D80102C04E
:10186000AA0FBB1F7A95E2F7BD01672141F4B801C9
:10187000022E02C0660F771F0A94E2F702C060E0F2
:1018800070E0462B572B598348832F5F3F4F2B30F7
:101890003105B9F691A1892281A292A1892B82A357
:1018A0002296F60180819181A816B90641F09092A6
:1018B00055010E943F1B9093570180935601F1E020
:1018C000CD34DF0709F098CF80915501882351F17D
:1018D00080915601909157010E94571B069710F175
:1018E000809145019091460190934E0180934D0166
:1018F00080914701909148019093500180934F014E
:101900008091490190914A01909352018093510135
:1019100080914B0190914C0190935401809353011D
:10192000109255010E94750781E0DF91CF911F91C0
:101930000F91FF90EF90DF90CF90BF90AF909F906E
:101940008F907F905F904F900895E82FF0E0EE0F1A
:10195000FF1FE35BFE4F808191810895CF92DF925C
:10196000EF92FF920F931F93CF93DF9383E293E065
:101970000E94C5068DE4E82E81E0F82EC0E0D0E09C
:101980009EE1C92E93E0D92E05E113E0DF93CF93BA
:10199000DF92CF920E945E078BE193E00E94C50622
:1019A000F701819191917F010E947F199F938F93FD
:1019B0001F930F930E945E0783E193E00E94C50688
:1019C00021968DB79EB708960FB6F8949EBF0FBEAE
:1019D0008DBFC430D105D1F6DF91CF911F910F910A
:1019E000FF90EF90DF90CF90089590935D018093EA
:1019F0005C010895E0915C01F0915D01309721F068
:101A00000190F081E02D099480E00895EF92FF921B
:101A10001F93CF93DF93FC01A0915C01B0915D0116
:101A2000109709F442C080911201882341F08091FF
:101A3000250287FF04C08081818385E08083EF01D8
:101A40001296ED91FC911397CE0109958091EB01CF
:101A500082FF2BC080FF04C082E493E00E94C50691
:101A600018E08CE3E82E83E0F82E8091EB0180FFF4
:101A70000BC088811F928F93FF92EF920E945E07A6
:101A80000F900F900F900F90115021961111EDCFE4
:101A90008091EB0180FF09C08AE393E0DF91CF9151
:101AA0001F91FF90EF900C94C506DF91CF911F918D
:101AB000FF90EF900895E0915C01F0915D01309707
:101AC00039F022E0DC012C930480F581E02D0994AB
:101AD000089520915A0130915B018217930771F0AC
:101AE00090935B0180935A01E0915C01F0915D015C
:101AF000309721F00680F781E02D09940895209118
:101B00005801309159018217930771F09093590150
:101B100080935801E0915C01F0915D01309721F0D4
:101B20000084F185E02D0994089585B7806885BF0C
:101B300085B7806885BF089508950E94950D0C941F
:101B40009C0D81E008950E94361B0E94880B0C9426
:101B5000B81BCF93C82F8091EB0182FF1EC080FF7E
:101B600004C08BE593E00E94C5068091EB0180FFE5
:101B70000CC01F92CF9386E593E09F938F930E94B2
:101B80005E070F900F900F900F908091EB0180FFF8
:101B900004C084E593E00E94C5068C2FCF910C947D
:101BA0007A074F925F927F928F929F92AF92BF92ED
:101BB000CF92DF92EF92FF920F931F93CF93DF9319
:101BC000CDB7DEB72A970FB6F894DEBF0FBECDBFF4
:101BD0000E94E30B0E94A10D811111C08FEF898338
:101BE0008A831B820E943F1B8160782F9D838C8398
:101BF00049815A816B818D810E948F0E57C09FE56C
:101C0000C92E91E0D92E00E010E0AA24A394B12CB3
:101C1000702E802F0E94A50C4C01F601419051902E
:101C20006F01482659264114510431F40F5F1F4FAC
:101C30000430110569F7D2CF8091EB0181FD0E943C
:101C4000AE0C20E030E07501022E02C0EE0CFF1C4D
:101C50000A94E2F7C70184219521892B09F12E838B
:101C60007F828E209F2091E0892809F490E0988758
:101C70000E943F1B8160782F9A8789874E815F8100
:101C800068858A850E948F0E000F111FF801E15AA6
:101C9000FE4F80819181E826F926F182E08206C01C
:101CA0002F5F3F4F2B30310571F6C0CF0E94CD1D05
:101CB00010915E010E94FA0C1817D9F00E94FA0CDC
:101CC00080935E012A960FB6F894DEBF0FBECDBF9B
:101CD000DF91CF911F910F91FF90EF90DF90CF9008
:101CE000BF90AF909F908F907F905F904F900C949B
:101CF000A90D2A960FB6F894DEBF0FBECDBFDF91B7
:101D0000CF911F910F91FF90EF90DF90CF90BF90F8
:101D1000AF909F908F907F905F904F900895CF935A
:101D2000DF93CDB7DEB72B970FB6F894DEBF0FBEAB
:101D3000CDBF4F83588769877A878B87DE011196DD
:101D400086E0FD0111928A95E9F785E0FE0137965C
:101D500001900D928A95E1F749815A816B817C81CE
:101D60008D819E810E94CC152B960FB6F894DEBF14
:101D70000FBECDBFDF91CF910895FC01808191818D
:101D80000E9496180895CF93DF931F92CDB7DEB7C8
:101D9000882309F42DC1682F8238C1F40E94FA0CFF
:101DA00081FD26C169E380910001909101010E94AB
:101DB000901A0E94F5182FEF81EE94E02150804098
:101DC0009040E1F700C0000069E319C0833811F5C5
:101DD0000E94FA0C80FD0CC163E580910001909196
:101DE00001010E94901A0E94F5182FEF81EE94E0F5
:101DF000215080409040E1F700C0000063E58091F1
:101E00000001909101010E949B1A0F90DF91CF91E8
:101E10000C94F5188438C1F40E94FA0C82FDE8C0D5
:101E200067E480910001909101010E94901A0E9444
:101E3000F5182FEF81EE94E0215080409040E1F7BB
:101E400000C0000067E4DBCF8CEF860F813A70F4AE
:101E5000862F69830E94212169818111C9C08091E7
:101E60000001909101010E94901ACFCF80E2860F6D
:101E7000883048F4677081E001C0880F6A95EAF7FE
:101E80000E942B19C2CF8BE5860F833088F4653A08
:101E900029F0663A31F083E890E005C081E890E0EF
:101EA00002C082E890E00F90DF91CF910C94690D11
:101EB00088E5860F873108F091C0683A09F445C07B
:101EC000693A09F445C06A3A09F445C06B3A09F425
:101ED00045C06C3A09F445C06B3B09F445C06C3B06
:101EE00009F445C06D3A09F445C0603B09F445C0AA
:101EF0006E3A09F445C06F3A09F445C0613B09F4F4
:101F000045C0623B09F445C0633B09F445C0643BEE
:101F100009F445C0653B09F445C0663B09F445C07A
:101F2000673B09F445C0683B09F445C0693B09F4C7
:101F300045C06D3B09F445C06E3B09F445C06A3BA2
:101F400009F445C080E090E044C082EE90E041C0DA
:101F500089EE90E03EC08AEE90E03BC085EB90E0D9
:101F600038C086EB90E035C083EB90E032C084EB64
:101F700090E02FC087EB90E02CC08CEC90E029C063
:101F80008DEC90E026C083E891E023C08AE891E0E0
:101F900020C082E991E01DC084E991E01AC081E28D
:101FA00092E017C083E292E014C084E292E011C094
:101FB00085E292E00EC086E292E00BC087E292E0FA
:101FC00008C08FE690E005C080E790E002C08AE29A
:101FD00092E00F90DF91CF910C947F0D603F40F025
:101FE000862F0E94531C0F90DF91CF910C94401DBF
:101FF0000F90DF91CF910895882309F464C082384F
:1020000079F40E94FA0C81FF5EC069E380910001BF
:10201000909101010E94901A0E94F51869E310C086
:102020008338B1F40E94FA0C80FF4DC063E58091C3
:102030000001909101010E94901A0E94F51863E539
:1020400080910001909101010E949B1A0C94F51857
:10205000843879F40E94FA0C82FF35C067E48091DD
:102060000001909101010E94901A0E94F51867E406
:10207000E7CF9CEF980F913A10F4682FE1CF90E2F0
:10208000980F983050F4877091E001C0990F8A95AD
:10209000EAF7892F0E943119D9CF9BE5980F933029
:1020A00020F480E090E00C94690D98E5980F97314A
:1020B00020F480E090E00C947F0D803F20F00E949F
:1020C000BB1C0C94401D0895882321F00E942B19FD
:1020D0000C94F5180895882321F00E9431190C946E
:1020E000F51808954F925F926F927F92BF92CF92B0
:1020F000DF92EF92FF920F931F93CF93DF937C01B8
:10210000D62FC72FFC01058102950F701281111186
:102110000E9448190E94EE18882379F0112369F073
:1021200080E28D0F883048F082E00E94D7180E942C
:10213000EE1891E0B82EB92601C0B12CCC2EC29475
:102140008FE0C822D12CF601E859FF4F0C94732A76
:102150008C2F807FCF70882311F0C295C07F112310
:1021600099F0CC2309F4CFC180E28D0F883010F0B4
:10217000D11104C08C2F0E942B1903C08C2F0E94F8
:102180003B190E94F518BFC18D2F0E94FC0FCC2374
:1021900009F4DEC180E28D0F883010F0D11104C047
:1021A0008C2F0E94311903C08C2F0E9441190E946C
:1021B000F518CEC18C2F807FCF70803211F0C29580
:1021C000C07FDD2319F0D130C9F022C0112371F096
:1021D000002341F0013031F40E9461198C2B0E94E0
:1021E0005B19B6C10E9461198C2B46C1002319F0FE
:1021F000013009F4ADC10E945E1918C0112321F00D
:10220000063008F0A5C10EC0053008F0A1C10EC00F
:10221000112351F0002331F0F701858180FF73C154
:102220008F7085838C2F28C101117EC18C2F2AC10C
:102230008C2F86958695837090E0009719F0019712
:1022400061F086C1112321F08D2F9C2F937002C065
:1022500080E090E00E94690D8BC1112321F08D2F49
:102260009C2F937002C080E090E00E947F0D80C19F
:102270001123F9F0D53F51F0D63F71F0D43FA9F4C6
:1022800080911F029091200281600BC080911F02FB
:1022900090912002826005C080911F0290912002DF
:1022A00084609093200280931F028D2F0E94531C04
:1022B0001EC0D53F51F0D63F71F0D43FA9F48091B4
:1022C0001F02909120028E7F0BC080911F0290917F
:1022D00020028D7F05C080911F02909120028B7F8C
:1022E0009093200280931F028D2F0E94BB1C0E949E
:1022F000401D3EC18C2F837009F050C0111134C1B4
:102300008D2F829586958770880F880F9D2F9F70DF
:10231000492E512C612C712C082E04C0440C551CE4
:10232000661C771C0A94D2F7D4FF14C00FE010E0AB
:1023300020E030E0B901A80104C0440F551F661F1A
:10234000771F8A95D2F7CB01BA0160957095809579
:10235000909503C060E070E0CB01C695C695C37050
:10236000D0E0C230D10561F0C330D10581F06429DD
:10237000752986299729219771F00E941117F4C0B9
:1023800064297529862997290E942317EDC00E9488
:102390001117C301B2010E94FF16E6C0112319F004
:1023A0008C2F817001C08695882309F4DDC08D2FA4
:1023B000829586958770880F880F9D2F9F70492E74
:1023C000512C612C712C082E04C0440C551C661C29
:1023D000771C0A94D2F7D4FF14C00FE010E020E07D
:1023E00030E0B901A80104C0440F551F661F771FD4
:1023F0008A95D2F7CB01BA0160957095809590953A
:1024000003C060E070E0CB01C695C695C3704C2F49
:1024100050E04230510569F04330510589F064299C
:102420007529862997294130510571F00E94D717E7
:102430009BC064297529862997290E94E91794C0B1
:102440000E94D717C301B2010E94C5178DC08D2FFE
:1024500090E0FC01E05EF109E531F10508F04FC0C4
:10246000E858FF4F0C94732ADF708C2F8F71112363
:1024700031F00E945E178D2F0E94641069C00E9487
:102480007F178D2F0E946B1063C0112341F0053020
:1024900008F05EC08C2F8F710E94A41759C00630BF
:1024A00008F056C0F7CF112339F08C2F8F710E949E
:1024B0005E174EC01123C9F38C2F8F710E947F17B6
:1024C00047C0112329F08C2F8F710E94491740C0FB
:1024D0000E9444173DC0112349F0CF718C2F0E94F8
:1024E0005E1763E08C2F0E94CE1832C081E00E94FC
:1024F000D718023068F182E00E94D71829C0112352
:1025000031F0002391F28D2F0E94C30E21C00023D1
:1025100099F2D93349F45FEF67EE73E051506040B0
:102520007040E1F700C000008D2F0E94FC0F10C02A
:102530004C2F4F706D2FC7010E9413090E94701617
:1025400017C04C2F4F706D2FC7010E94160910C085
:1025500088E0C816D10441F05CF0EAE0CE1AD10858
:10256000F2E0CF16D10420F40E94FA0C0E947A0700
:10257000BB20F1F00E94CA1880FD1AC0F701128238
:102580000E94C4180E945E17C7010E94E6120E94B2
:10259000C418DF91CF911F910F91FF90EF90DF90C2
:1025A000CF90BF907F906F905F904F900C947F176B
:1025B000DF91CF911F910F91FF90EF90DF90CF901F
:1025C000BF907F906F905F904F9008950F931F93EF
:1025D000CF93DF93EC01888199812B813C81232B60
:1025E000B9F09F3F11F48F3F99F0CE010E949207FE
:1025F000882371F0688179818A810E94A1188C01F9
:102600000E94FB170E94FC16B801CE010E947210B6
:10261000DF91CF911F910F9108950E9448190E9458
:10262000581980910001909101010E94A61A0E9400
:10263000F5180E94681E0E94401D80E090E00E94F4
:10264000690D80E090E00C947F0D0E9438190C9485
:102650000D130E949618E92FE295EF70F0E0329783
:10266000EE30F105B0F4E357FF4F0C94732A803F2E
:1026700091F018F4803E68F40EC0843F51F40BC012
:10268000803E48F0813F29F406C093FB882780F9FB
:10269000089580E0089581E00895CF93DF9300D0FE
:1026A00000D01F92CDB7DEB70F900F900F900F9014
:1026B0000F90DF91CF910895CF93DF9300D000D09A
:1026C00000D0CDB7DEB726960FB6F894DEBF0FBEAA
:1026D000CDBFDF91CF9108951F93CF93DF93C0912A
:1026E000680116E080916901C81799F0D0E01C9F3D
:1026F000F0011D9FF00D1124E659FE4F40815181DC
:1027000062817381848195810E945C132196C770D8
:10271000E9CFDF91CF911F91089540919A01509197
:102720009B0160919C0170919D0180919E0190910F
:102730009F010C945C1380919F0182958F7009F02A
:1027400054C080919C01882309F44FC08091680196
:10275000A091690160919A0170919B0140919D0146
:1027600050919E01B6E08A1709F43FC090E04115F0
:102770005105C1F17F3F11F46F3FA1F1B89FF00106
:10278000B99FF00D1124E659FE4F218172132AC022
:102790002081621327C02281211124C0238134812A
:1027A0002417350710F421503109241B350B283C20
:1027B0003105C0F420919F012F70206120939F016B
:1027C00026E0289FF001299FF00D1124E159FE4FCA
:1027D00080818F70806180838AE991E00E94E61297
:1027E0000C946C1301968770BECF0895CF92DF9240
:1027F000EF92FF920F931F93CF93DF93CDB7DEB786
:1028000062970FB6F894DEBF0FBECDBF8C0185E096
:10281000F801DE011D9601900D928A95E1F7D8012D
:102820004C9111965C91119712966C911297139698
:10283000CD90DC90149730919A0170919B0180911A
:102840009D0190919E01009709F46BC17F3F19F49F
:102850003F3F09F466C1E0909C01EE2009F4C0C03E
:1028600020919F01C816D90628F0F601E81BF90B44
:10287000CF0104C0809590958C0D9D1DFF24F3948D
:10288000883C910578F0F12C207F09F0C6C07C2DA2
:10289000D98AC88A89890E944D138AE991E00E94E9
:1028A000E612B1C0822F807F09F046C0751314C0B4
:1028B000341312C0611110C02F70206120939F014A
:1028C0000E948D138AE991E00E94E61280919F0197
:1028D000D80115968C932EC0CD2819F15F3F11F4C5
:1028E0004F3FF9F0F62E61111CC0809168012091D4
:1028F000690136E0821709F45AC090E0389FF00170
:10290000399FF00D1124E659FE4F7181571306C00F
:102910007081471303C07281711103C001968770E3
:10292000E9CFF62E662309F427C180919F018160CB
:1029300080939F01F12C20C1751308C0341306C089
:10294000611104C080919F01D801C3C04D875E878B
:102950008D859E856A8B0E9429136A898823E1F1FF
:102960006623D1F120919F01822F82958F7090E094
:10297000029774F080919A0190919B0198878F83C0
:102980001986DB86CA862C87CE0107960E94E6123E
:1029900086E0F801AAE9B1E001900D928A95E1F78D
:1029A0000E949B130E948D13FF24F394E5C04D8772
:1029B0005E878D859E850E949618292F22952F70FF
:1029C00030E0223031050CF0CBC09F7009F0C5C05B
:1029D000805E883008F4D0C0C8010E94E612E4CFBF
:1029E000C816D90608F453C0F601E81BF90BCF014D
:1029F000883C910508F450C0F12C7C2DD98AC88AF6
:102A000089890E944D13EAE9F1E086E0DF011D9219
:102A10008A95E9F70E948D13AFC0751314C0341363
:102A200012C0611110C080919F01F8018583C80117
:102A30000E94E61286E0EAE9F1E0DF011D928A9544
:102A4000E9F7FE2C99C04D875E878D859E856A8B40
:102A50000E9429136A89882309F4BECF662309F4EA
:102A6000BBCF20919F01822F82958F7090E00297BB
:102A70000CF48ECF80919A0190919B019A83898367
:102A80001B82DD82CC822E83CE0101967FCF809582
:102A900090958C0D9D1DACCFF62E662309F49CCF2E
:102AA00075132EC034132CC020919F0120FD1FC030
:102AB000822F82958F70D9F0D80115962C93159797
:102AC0008F3049F08F5F982F9295907F822F8F7073
:102AD000892B15968C93C8010E94E61286E0F801B6
:102AE000AAE9B1E001900D928A95E1F793CF86E0D3
:102AF000F801AAE9B1E001900D928A95E1F73CC096
:102B00004D875E878D859E850E942913811140CF58
:102B100080919F01816080939F01C8010E94E6120D
:102B20002BC0662309F458CF4D875E878D859E851F
:102B30000E942913F82E882309F44ECF86E0F8016D
:102B4000AAE9B1E001900D928A95E1F78AE991E056
:102B50000E94BD0E0E949B135DCF811139CF0CC026
:102B6000243031050CF038CF9F7009F431CFF801D3
:102B70009581907F09F02CCF8F2D62960FB6F89437
:102B8000DEBF0FBECDBFDF91CF911F910F91FF90A0
:102B9000EF90DF90CF9008951F93CF93DF93CDB741
:102BA000DEB72C970FB6F894DEBF0FBECDBF4F83B4
:102BB000588769877A878B879C87CE0107960E9402
:102BC000F613882369F08F8198852A853B85232B0E
:102BD000F1F19F3F09F063C08F3F09F060C037C03B
:102BE00086E0FE013796DE01119601900D928A95DE
:102BF000E1F76F817885EA85FB85309741F17F3F6A
:102C000011F46F3F21F12091690130E0C901019673
:102C1000877099274091680150E08417950709F45F
:102C200047C069837A83FD83EC8396E0929FD0014D
:102C3000939FB00D1124A659BE4FFE01319601900D
:102C40000D929A95E1F7809369010E946C1316E04A
:102C500080916801909169018917C1F1189FC001A5
:102C6000112486599E4F0E94F613882379F1E09132
:102C700068011E9FF0011124E659FE4F40815181E9
:102C800062817381848195810E945C1380916801C7
:102C900090E001968770992780936801D9CF4F8182
:102CA000588569857A858B859C850E945C13CFCF7A
:102CB0000E9425131092690110926801EAE9F1E07F
:102CC00086E0DF011D928A95E9F7C1CF2C960FB6F9
:102CD000F894DEBF0FBECDBFDF91CF911F91089555
:102CE000EF92FF920F931F93CF93DF938C01892B69
:102CF00009F46CC0F12CEE24E394E8012196F8016C
:102D00008491843740F4843008F051C0813081F0E0
:102D1000823019F15BC0853709F444C0A8F19CE703
:102D2000980F903708F052C08F770E94FC0F41C077
:102D30000E5F1F4FFE01C49180E28C0F883048F473
:102D4000C7708E2D01C0880FCA95EAF70E944B19F3
:102D500014C08C2F0E94C30E2DC00E5F1F4FFE01AA
:102D6000C49180E28C0F883058F4C7708E2D01C05A
:102D7000880FCA95EAF70E9451190E94F5181AC0E7
:102D80008C2F0E94FC0F16C00E5F1F4FFE01C491D6
:102D9000CC2381F08FE99FE00197F1F700C000009C
:102DA000C150F6CF0E5F1F4FFE01F49003C00E948A
:102DB000C30E8E018F2D882309F49FCFEFE9FFE02A
:102DC0003197F1F700C000008150F5CFDF91CF912E
:102DD0001F910F91FF90EF90089508950C94ED16B8
:102DE0000E94EE166093C2017093C3018093C401E8
:102DF0009093C5010C940D1308950C94F0160F9345
:102E00001F930091C2011091C3012091C401309120
:102E1000C501602B712B822B932B1F910F910C946A
:102E2000F0160F931F930091C2011091C3012091DE
:102E3000C4013091C50160237123822393231F9124
:102E40000F910C94F0160F931F930091C2011091F3
:102E5000C3012091C4013091C501602771278227E9
:102E600093271F910F910C94F01608950C94351729
:102E70000E9436176093BE017093BF018093C0011A
:102E80009093C1010C940D1360E070E0CB010C94A1
:102E900038170F931F9341E050E060E070E08A0123
:102EA0009B0104C0000F111F221F331F8A95D2F708
:102EB000C901B8011F910F910C9438170F931F93FC
:102EC00041E050E060E070E004C0440F551F661F11
:102ED000771F8A95D2F78091BE019091BF01A09192
:102EE000C001B091C1018A019B01082B192B2A2B2B
:102EF0003B2BC901B8011F910F910C9438170F9308
:102F00001F9341E050E060E070E004C0440F551FA3
:102F1000661F771F8A95D2F74095509560957095FA
:102F20008091BE019091BF01A091C001B091C101FB
:102F30008A019B01082319232A233B23C901B801D5
:102F40001F910F910C9438170F931F9341E050E09D
:102F500060E070E004C0440F551F661F771F8A951C
:102F6000D2F78091BE019091BF01A091C001B091B4
:102F7000C1018A019B01082719272A273B27C9017C
:102F8000B8011F910F910C9438170F931F93009164
:102F9000BE011091BF012091C0013091C101602B91
:102FA000712B822B932B1F910F910C9438170F9339
:102FB0001F930091BE011091BF012091C00130917B
:102FC000C10160237123822393231F910F910C94DD
:102FD00038170F931F930091BE011091BF012091EC
:102FE000C0013091C10160277127822793271F916B
:102FF0000F910C94381708952BE0929F800D1124A7
:10300000A82FA695A695A695877051E001C0550FEB
:103010008A95EAF785E0A89FD001112420E030E0EE
:1030200070E0F901EA0FFB1FE056FE4F4081CB0133
:10303000022E02C0969587950A94E2F7817099272F
:10304000819584278523842780832F5F3F4F2530F8
:10305000310539F708952BE0929F800D1124682FD8
:10306000669566956695982F977085E0689FB00184
:10307000112440E050E080E0FA01E60FF71FE0562F
:10308000FE4F208130E0092E02C0369527950A9424
:10309000E2F721703327042E01C0220F0A94EAF7C9
:1030A000822B4F5F5F4F4530510531F70895CF9226
:1030B000DF92EF92FF920F931F93CF93DF938C01D8
:1030C000C090C201D090C301E090C401F090C5014E
:1030D0008091BE019091BF01A091C001B091C1014A
:1030E000C82AD92AEA2AFB2ACFE1D0E0D701C601B3
:1030F0000C2E04C0B695A795979587950A94D2F79C
:1031000080FF06C0B8018C2F0E943109019721F47D
:10311000219760F780E001C08C2FDF91CF911F9144
:103120000F91FF90EF90DF90CF900895CF93DF93B2
:10313000EC010E945718BE010E943109DF91CF9126
:1031400008951F93CF93DF93EB019091670199232B
:1031500021F0CB010E94961813C0882349F0CB01BF
:103160000E945718182F682FCE010E94FC1704C028
:10317000CB010E942B18182FBE01812F0E9431090C
:10318000DF91CF911F9108958091C6018595859516
:10319000859508958091C6018770089598E0899F6C
:1031A00090011124262B2093C6010C945E172091C8
:1031B000C601809582238093C601982F977069F489
:1031C00030E0482F082E000C550B2417350729F046
:1031D0008595859585950C947F1708959091C601E6
:1031E000977081E009F480E00895E0910001F0918A
:1031F00001018091EA018083E0910001F0910101D9
:1032000090818091E901892B8083E0910001F09108
:10321000010190818091E801892B80838091C70111
:10322000882381F0E0910001F09101019081892BC8
:10323000808380910001909101010E94091A8111FF
:103240001092C70180910001909101010C94060D2C
:103250008091EA0108959091EA01892B8093EA0117
:10326000089580959091EA0189238093EA01089559
:103270001092EA0108959091E901892B8093E90168
:10328000089580959091E90189238093E90108953B
:103290001092E90108959091E801892B8093E8014B
:1032A000089580959091E80189238093E80108951D
:1032B0001092E80108958093C70108951092C70104
:1032C00008958091C701089590933D0180933C013A
:1032D00008958295982F9C7C392F36953695282F06
:1032E000237344E0249FC0011124932F982B292F8E
:1032F0002A7A2695892F8575880F822B08951F932A
:10330000CF93DF931F92CDB7DEB799830E946919DF
:10331000182F9981892F0E946919212F30E0322FAF
:103320002227A901482BCA010F90DF91CF911F914D
:10333000089580E090E00E94952A21E08D3E9E4F06
:1033400009F020E0822F089582E090E00C948D2A0D
:1033500083E090E00C948D2A84E090E00C948D2A18
:10336000682F84E090E00C949B2AAB01BC018FE0B5
:1033700090E00C94AD2AAB01BC0183E190E00C9489
:10338000AD2A60E070E0CB010C94BB1960E070E006
:10339000CB010E94B5190C94C1196DEE7EEF80E04F
:1033A00090E00E94B92A60E082E090E00E949B2AAF
:1033B00060E083E090E00E949B2A1092C20110928C
:1033C000C3011092C4011092C50160E084E090E056
:1033D0000E949B2A60E085E090E00E949B2A60E0CA
:1033E00086E090E00E949B2A6FEF87E090E00E94C9
:1033F0009B2A40E050E0BA0188E090E00E94AD2AAC
:1034000060E08DE090E00E949B2A0C94C6190C9419
:10341000CD19FC01329680911201882331F0809100
:10342000250287FF02C09EE101C096E080E0915036
:1034300028F021912223D9F38F5FF9CF08959C01C1
:10344000FC0132969FEF80E04191461789F09F3F43
:1034500019F4411101C0982F8F5F8630A9F79F3F63
:1034600039F0F901E90FF11D97FDFA95628308958E
:103470000895FC01329608962081261301C010821F
:103480003196E817F907C1F70895262F2695269556
:1034900026952E3170F4FC01E20FF11D677021E0DA
:1034A00030E001C0220F6A95EAF78281282B22833F
:1034B00008958091EB0180FF0CC01F926F938CE800
:1034C00093E09F938F930E945E070F900F900F9051
:1034D0000F900895262F2695269526952E3178F45F
:1034E000FC01E20FF11D677021E030E001C0220F06
:1034F0006A95EAF720958281282322830895809196
:10350000EB0180FF0CC01F926F938EE693E09F93B8
:103510008F930E945E070F900F900F900F90089569
:1035200020911201222329F02091250227FD0C94DD
:10353000451A0C941F1A20911201222329F0209180
:10354000250227FD0C946A1A0C94391A2091120155
:10355000FC013296222331F08091250287FF02C0C0
:103560008EE101C086E0DF011D928A95E9F708959A
:1035700008950C94B81A0E94B91A80912B028430D5
:1035800049F11092EC0120E488E190E00FB6F89444
:10359000A895809360000FBE2093600080E00E9499
:1035A0007A070E94B91A83B7817F846083BF83B78B
:1035B000816083BF7894889583B78E7F83BF0FB671
:1035C000F894A895809160008861809360001092C3
:1035D00060000FBE089508950895CF930E94EB1ADE
:1035E0000E94E30B0E94EC1AC0E08C2F0E94A50CF5
:1035F000892B29F4CF5FC430C1F780E001C081E09E
:10360000CF91089508950C94021B0E9425130E94E7
:10361000FA0C0E947A070C94031B1F920F920FB6AC
:103620000F9211248F939F93AF93BF938091EC01DE
:10363000811113C08091210290912202A091230256
:10364000B09124024196A11DB11D80932102909357
:103650002202A0932302B0932402BF91AF919F91C5
:103660008F910F900FBE0F901F90189582E084BD30
:1036700093E095BD9AEF97BD80936E0008952FB7A4
:10368000F8948091210290912202A0912302B0919E
:1036900024022FBF08952FB7F894609121027091F2
:1036A000220280912302909124022FBF0895CF928D
:1036B000DF92EF92FF920F931F932FB7F8944091F0
:1036C00021025091220260912302709124022FBFA7
:1036D0006A017B01EE24FF248C0120E030E0C0165B
:1036E000D106E206F30610F4415051099A01281B55
:1036F000390BC9011F910F91FF90EF90DF90CF9090
:10370000089578941F920F920FB60F9211248F9301
:103710009F93AF93BF938091210290912202A09139
:103720002302B09124020196A11DB11D80932102B4
:1037300090932202A0932302B0932402BF91AF91F1
:103740009F918F910F900FBE0F901F90189587E754
:1037500097E790930108809300089AE088E10FB6FC
:10376000F894A895809360000FBE90936000FFCFFF
:103770000E949919811102C00E94071A0E94A4197F
:103780008093EB010E94AC1990E090932602809305
:1037900025020E94A819682F70E080E090E00C9448
:1037A000FD168091EF0180FF0BC06091050185E05F
:1037B000689FB001112475956795759567952BC025
:1037C00081FF09C06091050185E0689FB001112467
:1037D0007595679520C082FF07C06091050185E05F
:1037E000689FB001112417C09091F0019923D1F086
:1037F00060910401961788F72091050185E0289FC4
:1038000090011124929FA001939F500D112470E00C
:10381000CA010E945F2A6038710540F46115710584
:1038200039F002C065E070E0862F08958FE70895B3
:1038300081E008958091EF0180FF08C0609103014D
:1038400070E0759567957595679521C081FF06C0F5
:103850006091030170E07595679519C082FF04C0FF
:103860006091030170E010C09091F0019923C1F0C4
:10387000609102019617A0F780910301899FC00112
:10388000112470E00E945F2A6038710528F46115E8
:10389000710521F0862F08958FE7089581E008953E
:1038A00061E070E0F4CF803F21F40E94D11B81954C
:1038B00004C0813F29F40E94D11B8093F401089534
:1038C000823F21F40E94D11B819504C0833F29F4DB
:1038D0000E94D11B8093F3010895893F19F40E943F
:1038E0001A1C05C08A3F31F40E941A1C81958093EE
:1038F000F50108958B3F21F40E941A1C819504C0A4
:103900008C3F29F40E941A1C8093F6010895843F8D
:1039100021F48091F201816017C0853F21F48091EC
:10392000F201826011C0863F21F48091F20184602F
:103930000BC0873F21F48091F201886005C0883F69
:1039400031F48091F20180618093F20108958D3FFE
:1039500021F48091EF0181600BC08E3F21F48091B2
:10396000EF01826005C08F3F29F48091EF018460F0
:103970008093EF010895803F39F48091F40187FF2F
:103980006CC01092F40169C0813F29F48091F40168
:103990001816BCF362C09091F301823F29F497FF9F
:1039A0005CC01092F30159C0833F19F41916CCF38F
:1039B00054C0893F41F48091F50118160CF04DC0B8
:1039C0001092F5014AC08A3F29F48091F50187FFE2
:1039D00044C0F6CF8B3F39F48091F60187FF3DC09C
:1039E0001092F6013AC08C3F29F48091F601181626
:1039F000BCF333C0843F21F48091F2018E7F17C065
:103A0000853F21F48091F2018D7F11C0863F21F422
:103A10008091F2018B7F0BC0873F21F48091F201EE
:103A2000877F05C0883F31F48091F2018F7E8093BB
:103A3000F20113C08D3F21F48091EF018E7F0BC006
:103A40008E3F21F48091EF018D7F05C08F3F29F4D7
:103A50008091EF018B7F8093EF018091F3018111C1
:103A60000EC08091F40181110AC08091F50181118D
:103A700006C08091F601811102C01092F0010895F4
:103A80008091EB0183FF7EC081ED93E00E94C5062B
:103A90008091F2011F928F938CEC93E09F938F9310
:103AA0000E945E078AEC93E00E94C5068091F301B4
:103AB000282F082E000C330B3F938F9387EC93E055
:103AC0009F938F930E945E0785EC93E00E94C5064A
:103AD0008091F401282F082E000C330B3F938F9315
:103AE00082EC93E09F938F930E945E0780EC93E0BB
:103AF0000E94C5068091F501282F082E000C330B7B
:103B00003F938F938DEB93E09F938F930E945E077B
:103B10008BEB93E00E94C5068091F601282F082EBA
:103B2000000C330B3F938F9388EB93E09F938F931D
:103B30000E945E0785EB93E00E94C5068091F0012C
:103B40001F928F9382EB93E09F938F930E945E0767
:103B500080EB93E00E94C5068091EF011F928F9346
:103B60008DEA93E09F938F930E945E078AEA93E029
:103B70000E94C5068DB79EB74C960FB6F8949EBFAF
:103B80000FBE8DBF81EF91E00E945B0D0E943F1B35
:103B90009093EE018093ED0108951F93CF93DF93EF
:103BA0008091ED019091EE010E94571BAC01909124
:103BB000F001992321F02091060130E006C0209108
:103BC00007018AE0289F900111244217530708F447
:103BD0007BC08091F301C091F401D091F501109167
:103BE000F601811107C0C1116BC0D11169C011115B
:103BF00067C06AC09F3F19F09F5F9093F00118164D
:103C000024F40E94D11B8093F3018091F30187FF7C
:103C100005C00E94D11B81958093F3011C1624F4EA
:103C20000E94D11B8093F4018091F40187FF05C0AD
:103C30000E94D11B81958093F4013091F3013323CD
:103C4000E1F02091F4012223C1F045EB3403C001DF
:103C50001124892F990F990B009709F481E0809323
:103C6000F30135EB2303C0011124892F990F990B20
:103C7000009709F481E08093F4011D1624F40E945A
:103C80001A1C8093F5018091F50187FF05C00E9401
:103C90001A1C81958093F501111624F40E941A1CB8
:103CA0008093F6018091F60187FF05C00E941A1CDF
:103CB00081958093F601DF91CF911F910C94401D67
:103CC0009F3F09F099CFA1CFDF91CF911F91089528
:103CD000E1EFF1E086E0DF011D928A95E9F71092AD
:103CE000F0011092EF01089584EF95E00E94C5065F
:103CF0001F9281E08F931F9285E08F9386EA95E073
:103D00009F938F930E945E070F900F900F900F90DC
:103D10000F900F9008958330E9F128F4813061F01D
:103D2000823009F10895853009F462C008F449C071
:103D3000863009F474C0089580910701262F30E081
:103D4000280F311D2F3F310524F4680F60930701C0
:103D500003C08FEF80930701809107011F928F931B
:103D60008FED94E072C080910601262F30E0280F7D
:103D7000311D2F3F310524F4680F6093060103C005
:103D80008FEF80930601809106011F928F938DEC37
:103D900094E05BC080910501262F30E0280F311D93
:103DA0002F3F310524F4680F6093050103C08FEFA6
:103DB00080930501809105011F928F938AEB94E017
:103DC00044C080910401262F30E0280F311D2F3F81
:103DD000310524F4680F6093040103C08FEF8093D2
:103DE0000401809104011F928F9385EA94E02DC015
:103DF00080910301262F30E0280F311D2F3F310520
:103E000024F4680F6093030103C08FEF80930301D4
:103E1000809103011F928F938CE894E016C08091EB
:103E20000201262F30E0280F311D2F3F310524F4E9
:103E3000680F6093020103C08FEF809302018091AD
:103E400002011F928F9381E794E09F938F930E94CA
:103E50005E070F900F900F900F900895833081F1BF
:103E600028F4813059F08230D1F00895853009F47A
:103E700049C0B8F1863009F456C008958091070111
:103E8000681720F4861B8093070102C01092070177
:103E9000809107011F928F9382E694E054C0809135
:103EA0000601681720F4861B8093060102C0109259
:103EB0000601809106011F928F9380E594E043C034
:103EC00080910501681720F4861B8093050102C0CC
:103ED00010920501809105011F928F938DE394E06C
:103EE00032C080910401681720F4861B809304017E
:103EF00002C010920401809104011F928F9388E206
:103F000094E021C080910301681720F4861B809300
:103F1000030102C010920301809103011F928F934D
:103F20008FE094E010C080910201681720F4861B96
:103F30008093020102C010920201809102011F923F
:103F40008F9384EF93E09F938F930E945E070F906F
:103F50000F900F900F900895CF93C82F1F928F93BB
:103F600089EF96E09F938F930E945E0781E090E037
:103F7000A0E0B0E0BC01CD0104C0660F771F881F30
:103F8000991FCA95D2F70E94FD160F900F900F90BF
:103F90000F90CF910C942513CF938732A8F58E31D3
:103FA00008F032C1803109F49FC0F8F4873009F479
:103FB00065C0A8F4863009F02DC18091EB01817FA6
:103FC0008E7F8093EB018FE898E00E94C50680EF1A
:103FD0009AE00E94C50681E08093F8014DC08B30C5
:103FE000F1F18E3009F46CC015C1863109F4B0C00E
:103FF00020F4813109F4F0C00DC1893109F491C078
:104000008B3109F449C006C1883349F150F4893233
:1040100009F4FCC0853309F4F9C0873209F4F6C00D
:10402000F9C0833409F4F2C028F48A3308F4F2C0EA
:104030008953EDC0883409F0EDC00E94251384ED4A
:104040009AE00E94C5062FEF83ED90E32150804057
:104050009040E1F700C000000E94A71B0DC086EB56
:1040600098E05CC08BEB9AE00E94C5068091EB0162
:10407000897F877F8093EB01C1E0D1C08091EB0104
:10408000C82FC095C170C0FB80F98093EB01CC2391
:1040900049F388EC9AE0B2C09091EB0191FBCC27F8
:1040A000C0F981E0C827892FC0FB81F98093EB011B
:1040B000CC2319F08EEA9AE027C080EA9AE02EC05D
:1040C0009091EB0192FBCC27C0F981E0C827892FA2
:1040D000C0FB82F98093EB01CC2319F081E99AE0CF
:1040E00013C081E89AE01AC09091EB0193FBCC27B2
:1040F000C0F981E0C827892FC0FB83F98093EB01C9
:10410000CC2351F085E79AE00E94C5068091EB012F
:1041100081608093EB0183C088E69AE00E94C50627
:10412000ABCF80E898E00E94C50685E598E00E9444
:10413000C5068BE198E00E94C50688EE97E00E94D4
:10414000C5068DEA97E00E94C5068FE797E0E6CFA7
:1041500081E797E00E94C5060E94FA0C1F928F9398
:1041600087E597E09F938F930E945E0780911201ED
:104170001F928F9380E497E09F938F930E945E0736
:1041800080911D021F928F938DE297E09F938F93F2
:104190000E945E078091250287FB882780F91F9285
:1041A0008F9385E197E09F938F930E945E070E9413
:1041B0004B1B9F938F937F936F938EEF96E09F930C
:1041C0008F930E945E078DB79EB746960FB6F89400
:1041D0009EBF0FBE8DBF50CF0E9425139091250228
:1041E00097FBCC27C0F981E0C827892FC0FB87F94E
:1041F00080932502CC2329F08EE59AE00E94C50623
:104200000EC083E59AE08ACF8D5101C080E00E9404
:10421000AC1F32CF81E59AE00E94C506C0E08C2F2A
:10422000CF91089580E0089580E008958E518A30FE
:1042300030F4E82FF0E0EE5DFE4F8081089580E0DD
:104240000895CF93C82F8091F801813071F020F04C
:10425000823009F44BC03FC1E0910001F0910101AF
:104260008081823209F039C107C0E0910001F091EC
:1042700001018081823261F48C2F0E941221811110
:1042800004C08C2F0E94CC1F2FC081E090E02CC076
:104290008C2F0E941421811126C0C431E1F070F4EA
:1042A000CB3081F0C031D1F40E94741E81EF96E0D2
:1042B0000E94C50682E08093F80115C0C93259F00A
:1042C000C83361F48FE898E00E94C50685EF96E058
:1042D0000E94C50608C01092F80101C18FEE96E059
:1042E0000E94C506FCC081E08170FBC0C43228F585
:1042F000CE3108F0C1C0CB30A1F1D0F4C73009F005
:10430000D0C08EE18093070182E3809306018AE0AA
:104310008093050184E18093040188E08093030188
:1043200088E28093020185E995E00E94C506BCC041
:10433000C33149F1C431C1F0B4C0CB3409F4A6C0D3
:1043400028F4C93289F0C83361F0ABC0C13509F433
:104350009BC0C23509F496C0CE3409F0A2C06AE011
:104360009BC00E94741EA0C08091F701882319F0A1
:104370001092F70199C082EA95E00E94C50681E09B
:104380008093F801AEC08CE795E00E94C5068AE6EE
:1043900095E00E94C506809107011F928F9387E6E2
:1043A00095E09F938F930E945E0785E695E00E94BB
:1043B000C50683E595E00E94C506809106011F921F
:1043C0008F9380E595E09F938F930E945E078EE424
:1043D00095E00E94C5068FE395E00E94C506809196
:1043E00005011F928F938CE395E09F938F930E941A
:1043F0005E078AE395E00E94C50689E295E00E9487
:10440000C506809104011F928F9386E295E09F93E9
:104410008F930E945E0784E295E00E94C5068FE0BC
:1044200095E00E94C506809103011F928F938CE056
:1044300095E09F938F930E945E078AE095E00E942B
:10444000C50683EF94E00E94C506809102011F9289
:104450008F9380EF94E09F938F930E945E078EEE80
:1044600094E00E94C5068DB79EB748960FB6F894A3
:104470009EBF0FBE8DBF18C08C2F0E941621809347
:10448000F70112C061E003C061E006C06AE08091FC
:10449000F7010E948B1E08C08091F7010E942E1F19
:1044A00003C083E995E013C08091F701882369F088
:1044B0001F928F938DE895E09F938F930E945E07E4
:1044C0000F900F900F900F9004C08AE895E00E9423
:1044D000C50681E006C01092F80180E002C080E0CD
:1044E00003CFCF91089580911C0208959FB7F8944F
:1044F0001092FB019FBF90912B02943009F057C09E
:104500009091E9009F703091EC00232F217030FDD5
:1045100020E8922B23E02093E9002091EB0020FF7C
:1045200043C02091EE0027FF3FC02091F9012223D4
:1045300021F02091E80025FF37C01092F90126E014
:104540003091E80035FD15C030912B02343061F513
:104550003091EB0035FD28C0215021F481E080939B
:10456000F90122C0EFE9FFE03197F1F700C0000048
:10457000E7CF8093F1008091E80085FD0AC080912B
:10458000E80080FFFCCF8091E8008E778093E80000
:1045900006C08FB7F89421E02093FB018FBF9F7076
:1045A0009093E90080E008959F709093E9008FEF69
:1045B00008950F931F93CF93DF9300D01F92CDB731
:1045C000DEB78C010E949B25823011F0843021F5EA
:1045D00084E089831B830A8382E08093E9008FEF64
:1045E0009091E800815095FD06C095ED9A95F1F700
:1045F00000008111F5CF8091E80085FF0DC040E0FB
:1046000050E063E070E0CE0101960E94B8258091F1
:10461000E8008E778093E8000F900F900F90DF9165
:10462000CF911F910F910895CF93DF9300D01F92E8
:10463000CDB7DEB720912B02243031F523E029835A
:10464000805891099B838A8382E08093E9008FEFF1
:104650009091E800815095FD06C095ED9A95F1F78F
:1046600000008111F5CF8091E80085FF0DC040E08A
:1046700050E063E070E0CE0101960E94B825809181
:10468000E8008E778093E8000F900F900F90DF91F5
:10469000CF910895CF93DF93EC010E949B25823048
:1046A00011F08430F9F482E08093E9009FEF80916B
:1046B000E800915085FD06C085ED8A95F1F7000070
:1046C0009111F5CF8091E80085FF0CC040E050E0EB
:1046D00066E070E0CE010E94B8258091E8008E77F8
:1046E0008093E800DF91CF910895CF93DF93EC01A1
:1046F0000E949B25823011F08430D9F580911201FF
:10470000882339F08091250287FF03C060E282E0B0
:1047100002C068E081E08093E9008FEF9091E800AB
:10472000815095FD06C095ED9A95F1F70000811135
:10473000F5CF8091E80085FF1CC0809112018111A6
:1047400005C040E050E068E070E003C070E040E089
:1047500050E0CE010E94B8258091E8008E778093CA
:10476000E80080E2FE01ACEFB1E001900D928A9585
:10477000E1F7DF91CF91089589E19BE00E94C506A2
:1047800080912A02811109C00E944D270E94AA2708
:104790008091E20084608093E200089585E19BE0CF
:1047A0000E94C50610922A02089581E19BE00C94B4
:1047B000C5068DE09BE00C94C50689E09BE00E9455
:1047C000C5060C94051B2091FA012F5F822F62E32E
:1047D0000E94532A992319F02093FA010895109208
:1047E000FA018091FB01882371F180912B028430C2
:1047F00041F58091E9008F702091EC00922F91702B
:1048000020FD90E8892B93E09093E9009091EB00D4
:1048100090FF14C09091EE0097FF10C09091E800B7
:1048200095FF03C01092F100F9CF9091E80090FF3E
:1048300005C09091E8009E779093E8008F70809378
:10484000E9001092FB01089542E061EC81E00E94D2
:10485000C72642E261EC82E00E94C72642E261EC98
:1048600083E00C94C72680912D02833009F453C055
:1048700030F4813071F0823009F48CC008958A30B0
:1048800009F478C08B3009F45EC0893009F09AC011
:1048900020C080912C02813A09F094C08091E800F8
:1048A000877F8093E8008091300290913102892BBC
:1048B00021F460E28CEF91E003C060E080E090E0E2
:1048C00070E00E9403268091E8008B778093E800D7
:1048D000089580912C02813209F074C080913002D9
:1048E00090913102029708F06DC08091E800877FB7
:1048F0008093E8008091E80082FD05C080912B0242
:104900008111F8CF5FC08091F10080931C028091EB
:10491000E8008B7753C080912C02813A09F052C095
:104920008091300290913102892B09F04BC0809127
:10493000E800877F8093E8008091E80080FFFCCF4B
:104940008091120136C080912C028132D9F580917C
:10495000300290913102892BA9F58091E800877F80
:104960008093E8000E94FC2680912E028093120121
:104970000C94251380912C02813221F58091E8005E
:10498000877F8093E8000E94FC2680912F0280930D
:104990001D02089580912C02813AA1F48091E800D3
:1049A000877F8093E8008091E80080FFFCCF8091B2
:1049B0001D028093F1008091E8008E778093E800DB
:1049C0000C94FC26089584B7877F84BF0FB6F894B3
:1049D000A8958091600088618093600010926000CB
:1049E0000FBE80E880936100109261000E949D0DCF
:1049F0000E944D270E94AA278091E2008460809344
:104A0000E20086E792E20E94641978940E94382AB4
:104A10000E94A30D88E091E00E94F50C88EF9AE0D7
:104A20000E94C50680912B02853089F484EF9AE0BC
:104A30000E94C5060E94BB1A80912902882391F327
:104A40000E94ED1A882371F30E94A225EBCF0E94E9
:104A5000D10DE8CF0C942C25292F33272330310595
:104A6000C9F064F42130310581F02230310509F0BC
:104A700049C08BE590E021E53BE048C0213231059B
:104A800021F12232310571F13DC082E190E02CEA42
:104A90003BE03CC099278130910571F02CF4892BC3
:104AA00089F5EDE4FBE00DC08230910541F00397FC
:104AB00049F5EDE1FBE005C0E3E3FBE002C0E3E222
:104AC000FBE0849190E09F0121C063307105D0F438
:104AD000660F771FFB01EB5CFE4F2081318189E07F
:104AE00090E014C06330710568F4FB01EE0FFF1F06
:104AF000E15DFE4F20813181FB01E45DFE4F80814D
:104B000090E004C080E090E020E030E0FA013183E2
:104B1000208308950895CF93C82F0E948A25C093BB
:104B20001E02CF91089580912B02843011F081E014
:104B3000089582E0089580911E02811102C00C94B4
:104B40009325089580E189BD82E189BD09B400FE05
:104B5000FDCF8091D8008F7D8093D8008091E000B8
:104B600082608093E0008091E00081FDFCCF089599
:104B7000CF92DF92EF92FF920F931F93CF93DF9329
:104B8000EC018B016A010E941B27811133C0C11403
:104B9000D10439F0F60180819181081B190BC80FEF
:104BA000D91FE12CF12C0115110519F18091E800B4
:104BB00085FD16C08091E8008E778093E800C114CF
:104BC000D10449F0F60180819181E80EF91EF1824D
:104BD000E08285E00FC00E941B27882321F30AC0D2
:104BE00089918093F10001501109FFEFEF1AFF0A3C
:104BF000DACF80E0DF91CF911F910F91FF90EF907E
:104C0000DF90CF9008952091320230913302261721
:104C1000370748F06115710539F42091E8002E77C7
:104C20002093E80001C0B90140E061157105A9F1C8
:104C300020912B02222309F443C0253009F442C0FD
:104C40002091E80023FD40C02091E80022FD32C001
:104C50002091E80020FFE9CF4091F3002091F2007D
:104C600030E0342BFC01CF016115710559F028307B
:104C7000310540F481918093F100615071092F5FFB
:104C80003F4FF1CF41E02830310509F040E020915D
:104C9000E8002E772093E800C8CF4111C9CF0AC0A1
:104CA00080912B02882361F0853061F08091E800CB
:104CB00083FD0AC08091E80082FFF2CF80E0089572
:104CC00082E0089583E0089581E008952091320202
:104CD000309133022617370748F06115710539F412
:104CE0002091E8002E772093E80001C0B901FC0173
:104CF00020E06115710591F180912B02882309F460
:104D000040C0853009F43FC08091E80083FD3DC07C
:104D10008091E80082FD2FC08091E80080FFE9CFFC
:104D20002091F3008091F20090E0922B61157105C3
:104D300059F08830910540F424912093F100319688
:104D4000615071090196F2CF21E0089709F020E047
:104D50008091E8008E778093E800CBCF2111CCCFF3
:104D60000AC080912B02882361F0853061F0809128
:104D7000E80083FD0AC08091E80082FFF2CF80E066
:104D8000089582E0089583E0089581E00895982FC2
:104D9000973058F59093E900981739F07091EC002E
:104DA0002091ED005091F00003C0242F762F50E0A9
:104DB00021FF19C03091EB003E7F3093EB00309122
:104DC000ED003D7F3093ED003091EB00316030938A
:104DD000EB007093EC002093ED005093F0002091D5
:104DE000EE0027FF07C09F5FD3CF8F708093E9004D
:104DF00081E0089580E0089580912C0287FF11C022
:104E00008091E80082FD05C080912B028111F8CFCE
:104E100011C08091E8008B770BC080912B02882312
:104E200049F08091E80080FFF8CF8091E8008E770C
:104E30008093E80008952091E4003091E50095E624
:104E40004091EC00842F817040FF22C08091E800E7
:104E500080FD1CC080912B02882391F0853091F059
:104E60008091EB0085FD10C04091E4005091E50079
:104E70004217530729F39A01915011F784E00895DE
:104E800082E0089583E0089581E0089580E0089528
:104E90004091E80042FFDECF08950E94BB270E94A8
:104EA000C327E0EEF0E0808181608083E8EDF0E0F0
:104EB00080818F77808319BCA7EDB0E08C918E7FC5
:104EC0008C9380818F7E808310922A0208950F93A5
:104ED0001F93CF93DF930E94BB270E94C327C8ED87
:104EE000D0E088818F7788838881806888838881F3
:104EF0008F7D888319BC10922B021092270210928A
:104F000029021092280200EE10E0F80180818B7FC8
:104F1000808388818160888342E060E080E00E9435
:104F2000C726E1EEF0E080818E7F8083E2EEF0E044
:104F3000808181608083808188608083F8018081A6
:104F40008E7F8083888180618883DF91CF911F91DC
:104F50000F910895E8EDF0E080818F7E8083E7ED8A
:104F6000F0E080818160808384E082BF81E0809373
:104F70002A020C946727E8EDF0E080818E7F808321
:104F80001092E20008951092DA001092E100089564
:104F90001F920F920FB60F9211242F933F934F93AE
:104FA0005F936F937F938F939F93AF93BF93EF9391
:104FB000FF938091E10082FF0BC08091E20082FFAD
:104FC00007C08091E1008B7F8093E1000E94E32382
:104FD0008091DA0080FF1FC08091D80080FF1BC045
:104FE0008091DA008E7F8093DA008091D90080FF73
:104FF0000DC080E189BD82E189BD09B400FEFDCF0D
:1050000081E080932B020E94BC2305C019BC109242
:105010002B020E94CE238091E10080FF19C0809175
:10502000E20080FF15C08091E2008E7F8093E20055
:105030008091E20080618093E2008091D8008062DC
:105040008093D80019BC85E080932B020E94D9235D
:105050008091E10084FF30C08091E20084FF2CC089
:1050600080E189BD82E189BD09B400FEFDCF809158
:10507000D8008F7D8093D8008091E1008F7E80934F
:10508000E1008091E2008F7E8093E2008091E20057
:1050900081608093E20080912702882311F084E0F0
:1050A00007C08091E30087FD02C081E001C083E07A
:1050B00080932B020E94DD238091E10083FF29C0B1
:1050C0008091E20083FF25C08091E100877F80937B
:1050D000E10082E080932B02109227028091E10090
:1050E0008E7F8093E1008091E2008E7F8093E200CA
:1050F0008091E20080618093E20042E060E080E025
:105100000E94C7268091F00088608093F0000E9482
:10511000D523FF91EF91BF91AF919F918F917F9197
:105120006F915F914F913F912F910F900FBE0F9014
:105130001F9018951F920F920FB60F9211242F9364
:105140003F934F935F936F937F938F939F93AF930F
:10515000BF93CF93DF93EF93FF93C091E900CF709C
:105160008091EC00D82FD17080FDD0E81092E9003A
:105170008091F000877F8093F00078940E94DE2871
:105180001092E9008091F00088608093F000CD2BB0
:10519000CF70C093E900FF91EF91DF91CF91BF9164
:1051A000AF919F918F917F916F915F914F913F91BF
:1051B0002F910F900FBE0F901F9018951F93CF93B4
:1051C000DF93CDB7DEB7AA970FB6F894DEBF0FBE58
:1051D000CDBFECE2F2E088E08E0F9091F100919368
:1051E0008E13FBCF0E9433248091E80083FF28C1F7
:1051F00080912C0290912D02492F50E04A305105A8
:1052000008F01EC1FA01E556FF4F0C94732A80384E
:1052100021F0823809F014C108C0809128029091D1
:105220002902992389F082600FC0809130028F702B
:10523000873008F005C18093E9008091EB0085FB81
:10524000882780F91092E9009091E800977F909369
:10525000E8008093F1001092F100D0C0282F2D7F3C
:1052600009F0EEC0882319F0823061F0E9C0809126
:105270002E02813009F0E4C0933009F080E0809381
:1052800029022EC080912E0281112AC08091300205
:105290008F702FEF280F263008F0D2C08093E900DE
:1052A0002091EB0020FF1CC0933021F48091EB0093
:1052B000806214C09091EB0090619093EB0021E02C
:1052C00030E0A90102C0440F551F8A95E2F74093D0
:1052D000EA001092EA008091EB0088608093EB0076
:1052E0001092E9008091E800877F8093E8000E9497
:1052F000FC26A6C08111A4C010912E021F778091B8
:10530000E3008078812B8093E3008091E800877F21
:105310008093E8000E94FC268091E80080FFFCCF8B
:105320008091E30080688093E300111102C082E065
:1053300001C083E080932B0283C08058823008F044
:105340007FC080912E0290912F028C3D53E09507F3
:1053500079F583E08A838AE289834FB7F894DE0186
:10536000139620E03EE051E2E32FF0E05093570027
:10537000E49120FF03C0E295EF703F5FEF708E2F46
:1053800090E0EA3010F0C79601C0C0968D939D93CF
:105390002F5F243149F74FBF8091E800877F8093CA
:1053A000E8006AE270E0CE0101960E94032615C073
:1053B0006091300270913102AE014F5F5F4F0E94E9
:1053C0002A25BC01892BE1F19091E800977F909309
:1053D000E80089819A810E9466268091E8008B7797
:1053E0008093E8002DC0803859F58091E800877FD0
:1053F0008093E800809127028093F1008091E8007B
:105400008E7773CF81111CC090912E029230C0F420
:105410008091E800877F8093E800909327020E94A4
:10542000FC2680912702811106C08091E30087FD50
:1054300002C081E001C084E080932B020E942424FA
:105440008091E80083FF0AC08091E800877F809305
:10545000E8008091EB0080628093EB00AA960FB683
:10546000F894DEBF0FBECDBFDF91CF911F9108959D
:10547000CF9380912B028823A1F0C091E900CF70D7
:105480009091EC00892F817090FD80E8C82B1092DC
:10549000E9008091E80083FD0E94DE28CF70C09370
:1054A000E900CF910895991B79E004C0991F9617E0
:1054B00008F0961B881F7A95C9F78095089597FB89
:1054C000072E16F4009407D077FD09D00E94792AA0
:1054D00007FC05D03EF4909581959F4F08957095F7
:1054E00061957F4F0895EE0FFF1F0590F491E02D19
:1054F0000994AA1BBB1B51E107C0AA1FBB1FA6171B
:10550000B70710F0A61BB70B881F991F5A95A9F76C
:1055100080959095BC01CD010895F999FECF92BD7B
:1055200081BDF89A992780B50895A8E1B0E042E0DE
:1055300050E00C94C12A262FF999FECF92BD81BD6F
:10554000F89A019700B4021639F01FBA20BD0FB6C1
:10555000F894FA9AF99A0FBE08950396272F0E949D
:105560009C2A0E949B2A252F0E949C2A242F0C945F
:105570009C2A0196272F0E949C2A0C949B2ADC01CE
:10558000CB01FC01F999FECF06C0F2BDE1BDF89A4E
:10559000319600B40D9241505040B8F70895F894F8
:0255A000FFCF3B
:1055A200C8012808140A321E732275234A231423C1
:1055B200D9220197663534C69436F6F7963790911C
:1055C20093920102030405060708090040C022A0C5
:0C55D2000CE00BBE0B630B7C0B950B0078
:00000001FF
