:100000000C9482060C94C9060C94C9060C94C9067B
:100010000C94C9060C94C9060C94C9060C94C90624
:100020000C94C9060C94C9060C944C270C941E28F9
:100030000C94791A0C94C9060C94C9060C94C90640
:100040000C94C9060C94C9060C94C9060C94C906F4
:100050000C94C9060C94ED1A0C94C9060C94C906AC
:100060000C94C9060C94C9060C94C9060C94C906D4
:100070000C94C9060C94C9060C94C9060C94C906C4
:100080000C94C9060C94C9060C94C9060C94C906B4
:100090000C94C9060C94C9060C94C9060C94C906A4
:1000A0000C94C9060C94C9060C94C906410843086F
:1000B0004E084508470849084B084D0850085208A3
:1000C00054085F08560858085A085C085E0861081A
:1000D0006310631095109510D310F3106312631220
:1000E00035116312E211E2115312631263125C12B2
:1000F000EF11EF11EF11EF11EF11EF11EF11EF1100
:10010000EF11EF11EF11EF11EF11EF11EF11EF11EF
:1001100000120E1215121C122612F212F212041301
:100120000413FB12041304130413F212F21200134B
:100130000413041300138B28B228A429B228A4297D
:10014000FE282129A4297729862914001A000800ED
:100150001500170000001C0018000C00120013000E
:1001600004001600070009000A0000000B000D0043
:100170000E000F0033001D001B00060019000500D3
:10018000E2001100100036003700380029002B0073
:10019000E300E1002A00E0002C0001582D003400AB
:1001A00028001E021F0252002F02300200004B00E6
:1001B00024002500260055002002500051004F0069
:1001C000210200004E0021002200230057002F00D2
:1001D0003000260227022402E20035001E001F0024
:1001E0002000310002532B00E300E1004C00E0004E
:1001F0002C000100370027002E0049004A00520061
:100200004D004B00000052004000410042004300FE
:100210004C00500051004F004E00000051003D00C6
:100220003E003F004400A800A90000000000005C60
:10023000E20000003A003B003C0045000100AA003B
:10024000E300E1002A00E0002C0010500000000054
:10025000135034003600370013001C000000090062
:100260000A00060015000F00040012000800180024
:100270000C00000007000B001700110016003300EF
:1002800014000D000E001B00E200050010001A0013
:1002900019001D0029002B00E300E1002A00E00006
:1002A0002C0004512D00380028001E021F025200AD
:1002B0002F02300200004B002400250026005500CC
:1002C0002002500051004F00210200004E0021008A
:1002D0002200230057002F003000260227022402AC
:1002E000E20035001E001F002000310010502B00DE
:1002F000E300E1004C00E0002C0001003700270083
:100300002E0044454255473A20656E61626C656433
:100310002E0A000A002530313662003A20002530CE
:100320003258000A722F6320303132333435363779
:1003300038394142434445460A000A0025303258C4
:1003400020006B6579626F6172645F7265706F72B5
:10035000743A20000A0025303258006B6579626FCC
:100360006172645F7365745F6C65643A20006465F4
:100370006C5F6B65795F6269743A2063616E2774A4
:100380002064656C3A20253032580A006164645F4D
:100390006B65795F6269743A2063616E27742061CE
:1003A00064643A20253032580A00290A0025750075
:1003B0002F002575005D28002564002000256400BD
:1003C000200025640020002564007C002530325880
:1003D000006D6F7573656B6579205B62746E7C78F8
:1003E0002079207620685D287265702F61636C2902
:1003F0003A205B006D6B5F776865656C5F74696D53
:10040000655F746F5F6D6178203D2025640A006D23
:100410006B5F776865656C5F6D61785F737065654C
:1004200064203D2025640A006D6B5F74696D655F13
:10043000746F5F6D6178203D2025640A006D6B5FED
:100440006D61785F7370656564203D2025640A00E6
:100450006D6B5F696E74657276616C203D202564FA
:100460000A006D6B5F64656C6179203D2025640A2C
:10047000006D6B5F776865656C5F74696D655F744F
:100480006F5F6D6178203D2025640A006D6B5F779A
:100490006865656C5F6D61785F7370656564203D4C
:1004A0002025640A006D6B5F74696D655F746F5F12
:1004B0006D6178203D2025640A006D6B5F6D617869
:1004C0005F7370656564203D2025640A006D6B5F75
:1004D000696E74657276616C203D2025640A006D3A
:1004E0006B5F64656C6179203D2025640A000A0019
:1004F000257500363A20776865656C5F74696D65AF
:100500005F746F5F6D61783A20000A0025750035D1
:100510003A20776865656C5F6D61785F73706565BB
:10052000643A20000A00257500343A2074696D652C
:100530005F746F5F6D61783A20000A0025750033A3
:100540003A206D61785F73706565643A20000A0037
:10055000257500323A20696E74657276616C286D7B
:1005600073293A20000A00257500313A2064656C31
:100570006179282A31306D73293A20000A092D202B
:1005800056616C756573202D0A004D3E004D256443
:100590003E20003F007365742064656661756C746D
:1005A0000A00433E200077686572652064656C74BC
:1005B000613A20637572736F723D25642C207768F1
:1005C00065656C3D25640A53656520687474703AEE
:1005D0002F2F656E2E77696B6970656469612E6F68
:1005E00072672F77696B692F4D6F7573655F6B65E8
:1005F00079730A000A092D204D6F7573656B657953
:10060000202D0A4553432F713A09717569740A31D7
:100610003A0964656C6179282A31306D73290A3290
:100620003A09696E74657276616C286D73290A33B4
:100630003A096D61785F73706565640A343A0974CC
:10064000696D655F746F5F6D61780A353A09776827
:1006500065656C5F6D61785F73706565640A363AD5
:1006600009776865656C5F74696D655F746F5F6D50
:1006700061780A0A703A097072696E742076616C4A
:100680007565730A643A09736574206465666175FB
:100690006C74730A75703A092B310A646F776E3A7D
:1006A000092D310A706775703A092B31300A70676D
:1006B000646F776E3A092D31300A0A73706565648C
:1006C000203D2064656C7461202A206D61785F7321
:1006D00070656564202A2028726570656174202F1A
:1006E0002074696D655F746F5F6D6178290A003FE2
:1006F000004D3E2000433E20004C25640A007469F2
:100700006D65725F72656164333228293A20253045
:10071000346C580A006B65796D61705F636F6E664B
:1007200069672E6E6B726F3A2025580A006B6579E7
:10073000626F6172645F69646C653A2025580A00D3
:100740006B6579626F6172645F70726F746F636FF3
:100750006C3A2025580A00686F73745F6B65796284
:100760006F6172645F6C65647328293A2025580AAA
:10077000000A092D20537461747573202D0A0047F7
:1007800043433A20342E392E32204156522D4C49C3
:1007900042433A20312E382E3073766E2041565225
:1007A0005F415243483A20617672350A004F5054F7
:1007B000494F4E533A204C554641204D4F555345D5
:1007C0004B45592045585452414B455920434F4EB3
:1007D000534F4C4520434F4D4D414E44204E4B52BC
:1007E0004F20343039360A004255494C443A2022D1
:1007F00039653134666222202832313A35313A3255
:1008000032205365702032352032303138290A00C9
:100810005649443A2030783132303928546563687B
:100820006E6F6D616E637929205049443A203078AB
:1008300041314535284174726575732920564552FA
:100840003A203078303030380A00444553433A205B
:10085000712E6D2E6B2E206B6579626F6172642034
:100860006669726D7761726520666F72204174727D
:100870006575730A000A092D2056657273696F6EDB
:10088000202D0A000A092D20436F6E736F6C6520BE
:100890002D0A4553432F713A09717569740A6D3AEF
:1008A000096D6F7573656B65790A000A092D204D16
:1008B00061676963202D0A443A09446562756720BF
:1008C0004D65737361676520546F67676C650A587F
:1008D0003A094D6174726978204465627567204DEC
:1008E0006F646520546F67676C65202D2053686FB7
:1008F00077206B65797072657373657320696E20FC
:100900006D617472697820677269640A4B3A094BA9
:100910006579626F61726420446562756720546F07
:1009200067676C65202D2053686F77206B65797041
:1009300072657373207265706F72740A4D3A094460
:1009400065627567204D6F75736520546F67676CBE
:10095000650A563A0956657273696F6E0A533A0909
:100960005374617475730A433A094163746976611B
:10097000746520436F6E736F6C65204D6F64650AFC
:1009800046312D4631303A095377697463682074D3
:100990006F204C6179657220302D39202846313026
:1009A000203D204C30290A302D393A09537769749B
:1009B000636820746F204C6179657220302D390A8C
:1009C0004553433A0953776974636820746F204C28
:1009D0006179657220302028616C7465726E617473
:1009E00065206B65792031290A47524156453A09FD
:1009F00053776974636820746F204C617965722045
:100A0000302028616C7465726E617465206B657945
:100A10002032290A50415553453A094A756D7020D4
:100A2000746F20426F6F746C6F616465722028521E
:100A300065736574290A4E3A094E4B524F20546F24
:100A400067676C650A003F004E4B524F3A206F6655
:100A5000660A004E4B524F3A206F6E0A000A6D6FC5
:100A60007573653A206F66660A000A6D6F75736567
:100A70003A206F6E0A000A6B6579626F6172643AA0
:100A8000206F66660A000A6B6579626F6172643A6C
:100A9000206F6E0A000A6D61747269783A206F6681
:100AA000660A000A6D61747269783A206F6E0A00F6
:100AB0000A64656275673A206F66660A000A6465B3
:100AC0006275673A206F6E0A000A0A4A756D70698E
:100AD0006E6720746F20626F6F746C6F61646572F3
:100AE0002E2E2E2000433E20005B735D004B657967
:100AF000626F6172642073746172742E0A005B57B6
:100B00005D005B535D005B525D005B445D005B43D9
:100B10005D000403300000000E0341007400720009
:100B20006500750073000000180354006500630041
:100B300068006E006F006D0061006E006300790058
:100B400000000403090409028D00050100A0FA0950
:100B500004000001030101000921110100012240EC
:100B6000000705810308000A0904010001030102CE
:100B700000092111010001224D0007058203080030
:100B80000A0904020001030000000921110100010B
:100B90002236000705830308000A09040300020344
:100BA0000000000921110100012222000705840331
:100BB00020000107050403200001090404000103CB
:100BC00000000009211101000122390007058503F9
:100BD00020000112011001000000080912E5A1081F
:100BE000000102030105010906A101050719E02919
:100BF000E7150025019508750181020508190129ED
:100C00000595057501910295017503910105071977
:100C10000029F71500250195F875018102C00631FC
:100C2000FF0974A1010975150026FF0095207508BC
:100C300081020976150026FF00952075089102C0F3
:100C400005010980A10185021601002603001A8111
:100C5000002A8300751095018100C0050C0901A1CF
:100C6000018503160100269C021A01002A9C0275C8
:100C70001095018100C005010902A1010901A1002F
:100C80000509190129051500250195057501810240
:100C90009501750381010501093009311581257F11
:100CA00095027508810609381581257F950175081B
:100CB0008106050C0A38021581257F95017508818A
:100CC00006C0C005010906A101050719E029E715BD
:100CD00000250195087501810295017508810105BE
:100CE0000819012905950575019102950175039172
:100CF000010507190029FF150026FF009506750854
:100D00008100C00011241FBECFEFDAE0DEBFCDBFEF
:100D100004B603FE27C080913D0290913E02A0914F
:100D20003F02B09140028730904BA740B04BD1F4C6
:100D300010923D0210923E0210923F021092400229
:100D400014BE84B7877F84BF0FB6F894A8958091AE
:100D50006000886180936000109260000FBEE0E048
:100D6000F8E3099511E0A0E0B1E0E2E9F4E502C0A2
:100D700005900D92A634B107D9F722E0A6E4B1E0C0
:100D800001C01D92AD33B207E1F70E9467240C94B5
:100D9000472A0C940000FF93EF93E0914601F091F5
:100DA0004701309709F00995EF91FF910895FC01F3
:100DB0008591803011F0EFDFFBCF0895FF27E0E24F
:100DC00030E247FF0CC0419597FF09C0EDE2609506
:100DD000709580959095611D711D811D911D27FF56
:100DE00002C0219530E350E2AA27660F771F881FC3
:100DF000991FAA1FA41710F0A41B63955A95A9F771
:100E0000AA3008F0A95FA05DAF93F3956115710555
:100E10008105910541F7ED3211F4EF93F395F21747
:100E200018F43F93F395FBCF8F91B5DFFA95E1F777
:100E30000895E991F9918591803021F0853219F07A
:100E4000AADFF9CF089520E0E89455915532C1F317
:100E5000503311F4689455915A3348F4505390F339
:100E6000220F022E220F220F200D250FF4CF0EF499
:100E7000219589919991533619F3533729F15335B7
:100E800059F1BC0188279927E8945C3621F48991AF
:100E9000999168945591543639F446EF7EF077FF76
:100EA0000DC08FEF9FEF0AC055374AE039F0583533
:100EB00040E121F0523642E009F00895FF93EF93AC
:100EC0007DDFEF91FF91B7CFFF93EF93FC0181910D
:100ED0008030B9F360DFFBCFFF93EF9368DFF1CF92
:100EE000DF93CF93CDB7DEB72596A3DFCF91DF9108
:100EF000089581E0089581E008950C947B070C9497
:100F0000730B0C94760B08950C9483070C94840750
:100F100008950E94E0120E9488072FEF84E39CE06E
:100F2000215080409040E1F700C0000087E797E73C
:100F300090930108809300080C94131BFF920F9369
:100F40001F93CF93DF938C01FC01C081D1818091ED
:100F50007101811113C08281882349F0CE010E9462
:100F60001018F82E682FCE010E94B51704C0CE01CC
:100F70000E94E417F82EBE018F2D04C0CE010E94FE
:100F80001018BE010E941509EC01B8010E947D07EE
:100F9000882309F43FC1C631FCE5DF0709F406C127
:100FA00078F4C130ECE5DE0759F120F4C115DC45D9
:100FB000F9F023C1C531ECE5DE0708F440C01DC1DE
:100FC000C83DFCE5DF0709F4D6C050F4C63DECE5AA
:100FD000DE0709F486C0C73DDC4509F4A5C00DC194
:100FE000CB3D8CE5D807D9F0CC3DDC45F9F005C107
:100FF000F8018281882309F40DC10E9489070AC182
:10100000F8018281882309F405C18091F50181608E
:101010008093F50182E093E00E94D706FBC0F801BF
:101020008281882309F4F6C080E006C0F80182813D
:10103000882309F4EFC082E00E940F25EBC0F8017D
:101040008281882309F4DEC00E946C19811102C0DC
:101050000E9452190E947F1990E090932F02809372
:101060002E02FE01E350FC45E231F10530F4EA5A6C
:10107000FF4F80912E020C94F72980912E028160FF
:1010800027C0826025C0846023C0806121C0806247
:101090001FC080641DC080681BC08460886018C049
:1010A0008E7F16C08D7F14C08B7F12C08F7E10C0C4
:1010B0008F7D0EC08F7B0CC08F770AC08B7F877FA0
:1010C00007C087FB222720F991E0922790FB87F940
:1010D00080932E0280912E020E9483190E94E012BA
:1010E00099C0F8018281882351F010924D010E942D
:1010F000AB1A90934A018093490182E022C080910B
:101100004D0181110FC08091490190914A010E94C7
:10111000C31A883C910530F486E20E94A20E86E252
:101120000E94B90F82E024C0F8018281882361F017
:1011300010924E010E94AB1A90934C0180934B0188
:1011400080E20E941F1066C080914E0181110FC085
:1011500080914B0190914C010E94C31A883C9105EB
:1011600030F487E20E94A20E87E20E94B90F80E26B
:101170000E9426104FC0F80182818111D9CF809141
:101180004E018111F4CF80914B0190914C010E944E
:10119000C31A883C910558F780E20E94261088E225
:1011A0000E94A20E88E20E94B90F34C00E94E1188A
:1011B000282FF8018281409100015091010188237C
:1011C00079F02A7A91E009F490E090934801911126
:1011D00002C069E201C065E3CA010E94061A0AC0A2
:1011E00080914801811102C069E201C065E3CA0132
:1011F0000E94111A0E94AE180DC081E080934D012B
:1012000080934E01C801DF91CF911F910F91FF9004
:101210000C94790780E0DF91CF911F910F91FF909F
:10122000089580E090E0089508959BE0799FF00193
:1012300011249CE2899FE00DF11D1124E60FF11DA0
:10124000EE0FFF1FE65BFE4F859194910895880F86
:10125000991FFC01ED5EFC4F859194910895CF9309
:10126000DF930E9415090E94D20AEC01811520E546
:101270009207F0F5811530E4930708F018C1883E15
:10128000910500F5803E910508F088C1883A9105E6
:1012900070F4853A910508F09AC08130910509F4FF
:1012A0007DC108F434C1049708F078C130C18D3B8A
:1012B000910508F497C0803C910508F428C1805C32
:1012C0009109E7C08115904258F4C11581E0D80713
:1012D00008F064C1C03FD10508F419C1D0655EC1F2
:1012E000C11590E3D90708F0D8C0CE019F70D1C0D6
:1012F000811525E5920708F043C0811534E5930771
:1013000008F0ECC0811542E5940708F5C11581E5A8
:10131000D80708F0CFC02C2F237081E090E002C0E6
:10132000880F991F2A95E2F79C689E0174E0369514
:1013300027957A95E1F72370922BCF70C695C695C5
:1013400030E2C39FE0011124C82BD92B27C1869519
:1013500086959E0123703327C115D34508F0AFC091
:1013600040E2849FC0011124C1E0D0E002C0CC0F54
:10137000DD1F2A95E2F78C2B9D2BEC01DC680EC15A
:10138000811529E5920778F4811538E5930708F06F
:10139000AAC08115964508F0BAC0CF71DD27DC2FB1
:1013A000CC27D062FBC0C1158AE5D80708F4A0C0DD
:1013B000CE0190568115904208F0A9C08D2F8F71F3
:1013C0000E944F0BDD27D0628F71D82BE7C0853A82
:1013D000910509F49FC0863A910509F09EC0C2E8C4
:1013E000D0E4DCC0883A910509F49AC0893A9105A5
:1013F00009F499C08A3A910509F498C08B3A91058D
:1014000009F497C08C3A910509F496C08B3B91057D
:1014100009F495C08C3B910509F494C08D3A91056F
:1014200009F493C0803B910509F492C08E3A91056E
:1014300009F491C08F3A910509F490C0813B910560
:1014400009F48FC0823B910509F48EC0833B91055E
:1014500009F48DC0843B910509F48CC0853B91054E
:1014600009F48BC0863B910509F48AC0873B91053E
:1014700009F489C0883B910509F488C0893B91052E
:1014800009F487C08A3B910509F486C0C0E0D4E422
:1014900085C00E942709EC0181C0CE019927D3FFA6
:1014A00003C0EC01D86C7AC0EC01D06C77C0DF705F
:1014B000D06A74C0DC2FCC27C16FD06A6FC040E205
:1014C000849FC0011124C1E0D0E002C0CC0FDD1F19
:1014D0002A95E2F7C82BD92BDA6860C0D82FCC2721
:1014E000C46FD06A5BC0D82FCC27C06FD06A56C0FB
:1014F0008C2F8F70806E90E0906A24E0D695C7950F
:101500002A95E1F7CF709C013C2BE90147C0C0E070
:10151000D0E044C0C1E8D0E441C0C3E8D0E43EC05C
:10152000C2EED4E43BC0C9EED4E438C0CAEED4E481
:1015300035C0C5EBD4E432C0C6EBD4E42FC0C3EB56
:10154000D4E42CC0C4EBD4E429C0C7EBD4E426C057
:10155000CCECD4E423C0CDECD4E420C0C3E8D5E483
:101560001DC0CAE8D5E41AC0C2E9D5E417C0C4E971
:10157000D5E414C0C1E2D6E411C0C3E2D6E40EC083
:10158000C4E2D6E40BC0C5E2D6E408C0C6E2D6E4A5
:1015900005C0C7E2D6E402C0CAE2D6E4CE01DF91BC
:1015A000CF9108958238910549F1B0F481339105C6
:1015B00009F458C048F48932910509F44EC08A32C2
:1015C000910509F454C008958533910509F440C08C
:1015D0008933910599F00895833E910529F138F4F6
:1015E000803E910591F0823E9105A1F00895863EDE
:1015F0009105F9F0873E910531F1089520912E0271
:1016000020FD3AC021FD38C0089580912E0280FD52
:1016100035C032C080912E0282FF32C080912E02EE
:1016200084FD30C083EE39C080912E0282FD28C037
:10163000F5CF80912E0283FF27C080912E0284FD7A
:1016400021C087EE2AC080912E0283FD1DC0F5CFF8
:1016500080912E0285FD1AC01BC080912E0285FD4F
:1016600017C014C080912E0286FD14C015C0809151
:101670002E0286FD11C00EC080EE0FC089E30DC0A2
:1016800082EE0BC080E009C086EE07C089E205C08B
:1016900085E303C08AE201C081E390E00895909160
:1016A0002E0292FF0DC0282F2871283019F4877F51
:1016B000846006C0282F2471243011F48B7F886049
:1016C00093FF0DC0282F2871283119F4877E84617B
:1016D00006C0282F2471243111F48B7E886194FD7B
:1016E000877E089508950C94720B08950C94750BE1
:1016F000AEE1B1E041E050E024E02A0F8D91E82F07
:10170000E295EF70F0E031A18F70BA0102C0660F70
:10171000771F8A95E2F7CB01962F9095932391A39B
:1017200092A1892B82A32A13E9CFA3E1B1E041E082
:1017300050E02BE02A0F8D91E82FE295EF70F0E05A
:1017400031A18F70BA0102C0660F771F8A95E2F748
:10175000CB01962F9095932391A392A1892B82A3DD
:101760002A13E9CF1092580110925701109250019C
:1017700010924F0110925A01109259011092520189
:101780001092510110925C0110925B011092540171
:101790001092530110925E0110925D011092560159
:1017A000109255010C947F074F925F927F928F9217
:1017B0009F92AF92BF92CF92DF92EF92FF920F93E0
:1017C0001F93CF93DF932EE1E22E21E0F22ECFE4A0
:1017D000D1E001E010E0992493946E01A880B980D3
:1017E00019821882D7018D917D01E82FE295EF7063
:1017F000F0E021A18F70A80102C0440F551F8A9507
:10180000E2F7CA01242B21A322A1842E809428214F
:1018100022A350EA5A95F1F793E1492E91E0592E0F
:1018200020E030E0D2017D912D01472F42954F708D
:1018300050E0DA0190967C90488159817F70D80100
:1018400002C0AA0FBB1F7A95E2F7BD01672141F4E0
:10185000B801022E02C0660F771F0A94E2F702C099
:1018600060E070E0462B572B598348832F5F3F4F32
:101870002B303105B9F691A1892281A292A1892B41
:1018800082A32296F60180819181A816B90641F0C3
:1018900090925F010E94AB1A909361018093600166
:1018A000F1E0C735DF0709F098CF80915F01882309
:1018B00051F180916001909161010E94C31A0697D5
:1018C00010F180914F0190915001909358018093B5
:1018D0005701809151019091520190935A01809348
:1018E0005901809153019091540190935C01809330
:1018F0005B01809155019091560190935E01809318
:101900005D0110925F010E94810781E0DF91CF911C
:101910001F910F91FF90EF90DF90CF90BF90AF900D
:101920009F908F907F905F904F900895E82FF0E008
:10193000EE0FFF1FE95AFE4F808191810895CF92EB
:10194000DF92EF92FF920F931F93CF93DF9383E287
:1019500093E00E94D70687E5E82E81E0F82EC0E0EC
:10196000D0E09EE1C92E93E0D92E05E113E0DF938C
:10197000CF93DF92CF920E9470078BE193E00E9499
:10198000D706F701819191917F010E9438199F93A9
:101990008F931F930F930E94700783E193E00E943F
:1019A000D70621968DB79EB708960FB6F8949EBFBE
:1019B0000FBE8DBFC430D105D1F6DF91CF911F91FD
:1019C0000F91FF90EF90DF90CF9008959093670173
:1019D000809366010895E0916601F0916701309768
:1019E00021F00190F081E02D099480E00895EF92BC
:1019F000FF920F931F93CF93DF93E0916601F091D5
:101A000067013097B1F18C010280F381E02D0995D7
:101A10008091F50182FF2DC080FF04C082E493E035
:101A20000E94D706E80110E28CE3E82E83E0F82E4E
:101A30008091F50180FF0BC088811F928F93FF92E8
:101A4000EF920E9470070F900F900F900F9011501F
:101A500021961111EDCF8091F50180FF0AC08AE334
:101A600093E0DF91CF911F910F91FF90EF900C9435
:101A7000D706DF91CF911F910F91FF90EF900895BE
:101A8000E0916601F0916701309721F00480F581C3
:101A9000E02D099408952091640130916501821729
:101AA000930771F09093650180936401E091660162
:101AB000F0916701309721F00680F781E02D0994BD
:101AC000089520916201309163018217930771F0AC
:101AD0009093630180936201E0916601F091670148
:101AE000309721F00084F185E02D09940895089540
:101AF0000C94770D81E008950E94A21A85B7806842
:101B000085BF85B7806885BF0E94780B0C94241B25
:101B1000CF93C82F8091F50182FF1EC080FF04C0C3
:101B20008BE593E00E94D7068091F50180FF0CC001
:101B30001F92CF9386E593E09F938F930E94700747
:101B40000F900F900F900F908091F50180FF04C0CF
:101B500084E593E00E94D7068C2FCF910C948607E2
:101B60004F925F927F928F929F92AF92BF92CF924D
:101B7000DF92EF92FF920F931F93CF93DF93CDB736
:101B8000DEB72A970FB6F894DEBF0FBECDBF0E9416
:101B9000D40B0E947A0D811111C08FEF89838A8343
:101BA0001B820E94AB1A8160782F9D838C834981B0
:101BB0005A816B818D810E946E0E57C099E6C92EA5
:101BC00091E0D92E00E010E0AA24A394B12C702E4D
:101BD000802F0E94960C4C01F601419051906F01AC
:101BE000482659264114510431F40F5F1F4F043029
:101BF000110569F7D2CF8091F50181FD0E949F0CFC
:101C000020E030E07501022E02C0EE0CFF1C0A94A9
:101C1000E2F7C70184219521892B09F12E837F8268
:101C20008E209F2091E0892809F490E098870E94F7
:101C3000AB1A8160782F9A8789874E815F8168858A
:101C40008A850E946E0E000F111FF801E759FE4FA2
:101C500080819181E826F926F182E08206C02F5F1B
:101C60003F4F2B30310571F6C0CF0E94391D1091C6
:101C700068010E94EB0C1817D9F00E94EB0C8093BE
:101C800068012A960FB6F894DEBF0FBECDBFDF9174
:101C9000CF911F910F91FF90EF90DF90CF90BF9069
:101CA000AF909F908F907F905F904F900C94880D95
:101CB0002A960FB6F894DEBF0FBECDBFDF91CF914D
:101CC0001F910F91FF90EF90DF90CF90BF90AF905A
:101CD0009F908F907F905F904F900895CF93DF9368
:101CE000CDB7DEB72B970FB6F894DEBF0FBECDBFD2
:101CF0004F83588769877A878B87DE01119686E044
:101D0000FD0111928A95E9F785E0FE013796019071
:101D10000D928A95E1F749815A816B817C818D8191
:101D20009E810E9487152B960FB6F894DEBF0FBEDA
:101D3000CDBFDF91CF910895FC01808191810E94F8
:101D40004F180895CF93DF931F92CDB7DEB7882346
:101D500009F40BC1682F8238C1F40E94EB0C81FD9D
:101D600004C169E380910001909101010E94061A6B
:101D70000E94AE182FEF81EE94E0215080409040F9
:101D8000E1F700C0000069E319C0833811F50E9433
:101D9000EB0C80FDEAC063E58091000190910101A8
:101DA0000E94061A0E94AE182FEF81EE94E0215097
:101DB00080409040E1F700C0000063E580910001A1
:101DC000909101010E94111A0F90DF91CF910C9414
:101DD000AE188438C1F40E94EB0C82FDC6C067E4E3
:101DE00080910001909101010E94061A0E94AE1894
:101DF0002FEF81EE94E0215080409040E1F700C049
:101E0000000067E4DBCF8CEF860F813A70F4862FF9
:101E100069830E948D2069818111A7C08091000192
:101E2000909101010E94061ACFCF80E2860F883080
:101E300048F4677081E001C0880F6A95EAF70E9454
:101E4000E418C2CF8BE5860F833088F4653A29F019
:101E5000663A31F083E890E005C081E890E002C086
:101E600082E890E00F90DF91CF910C944B0D88E5C4
:101E7000860F853108F071C0683A61F1693A69F1FD
:101E80006A3A71F16B3A79F16C3A81F16B3B89F105
:101E90006C3B91F16D3A99F1603BA1F16E3AA9F179
:101EA0006F3AB1F1613BB9F1623BC1F1633BC9F1FA
:101EB000643BD1F1653BD9F1663BE1F1673BE9F168
:101EC000683BF1F1693BF9F16A3B09F43FC080E0FE
:101ED00090E03EC082EE90E03BC089EE90E038C0DA
:101EE0008AEE90E035C085EB90E032C086EB90E062
:101EF0002FC083EB90E02CC084EB90E029C087EBEF
:101F000090E026C08CEC90E023C08DEC90E020C0E7
:101F100083E891E01DC08AE891E01AC082E991E06F
:101F200017C084E991E014C081E292E011C083E21D
:101F300092E00EC084E292E00BC085E292E008C01D
:101F400086E292E005C087E292E002C08AE292E077
:101F50000F90DF91CF910C94610D603F30F0862F90
:101F60000F90DF91CF910C94BF1B0F90DF91CF9119
:101F70000895882309F462C0823879F40E94EB0C3A
:101F800081FF5CC069E380910001909101010E9492
:101F9000061A0E94AE1869E310C08338B1F40E949B
:101FA000EB0C80FF4BC063E5809100019091010133
:101FB0000E94061A0E94AE1863E58091000190917C
:101FC00001010E94111A0C94AE18843879F40E9411
:101FD000EB0C82FF33C067E4809100019091010116
:101FE0000E94061A0E94AE1867E4E7CF9CEF980F94
:101FF000913A10F4682FE1CF90E2980F983050F4A6
:10200000877091E001C0990F8A95EAF7892F0E94A5
:10201000EA18D9CF9BE5980F933020F480E090E048
:102020000C944B0D98E5980F953120F480E090E0EA
:102030000C94610D803F10F00C94271C08958823A8
:1020400021F00E94E4180C94AE180895882321F022
:102050000E94EA180C94AE1808954F925F926F9206
:102060007F92BF92CF92DF92EF92FF920F931F93D6
:10207000CF93DF937C01D62FC72FFC0105810295FA
:102080000F70128111110E9401190E94A718882354
:1020900079F0112369F080E28D0F883048F082E0FA
:1020A0000E9490180E94A71891E0B82EB92601C08E
:1020B000B12CCC2EC2948FE0C822D12CF601E85965
:1020C000FF4F0C94F7298C2F807FCF70882311F05D
:1020D000C295C07F112399F0CC2309F4CFC180E2CF
:1020E0008D0F883010F0D11104C08C2F0E94E4189D
:1020F00003C08C2F0E94F4180E94AE18BFC18D2F10
:102100000E94B90FCC2309F4DEC180E28D0F883024
:1021100010F0D11104C08C2F0E94EA1803C08C2F3C
:102120000E94FA180E94AE18CEC18C2F807FCF700B
:10213000803211F0C295C07FDD2319F0D130C9F093
:1021400022C0112371F0002341F0013031F40E94CC
:102150001A198C2B0E941419B6C10E941A198C2BC3
:1021600046C1002319F0013009F4ADC10E941719CE
:1021700018C0112321F0063008F0A5C10EC00530AB
:1021800008F0A1C10EC0112351F0002331F0F70176
:10219000858180FF73C18F7085838C2F28C10111C9
:1021A0007EC18C2F2AC18C2F86958695837090E0F6
:1021B000009719F0019761F086C1112321F08D2F4E
:1021C0009C2F937002C080E090E00E944B0D8BC169
:1021D000112321F08D2F9C2F937002C080E090E09E
:1021E0000E94610D80C11123F9F0D53F51F0D63F17
:1021F00071F0D43FA9F48091280290912902816066
:102200000BC08091280290912902826005C08091C4
:1022100028029091290284609093290280932802D9
:102220008D2F0E94BF1B1EC0D53F51F0D63F71F0CD
:10223000D43FA9F480912802909129028E7F0BC08F
:1022400080912802909129028D7F05C080912802FB
:10225000909129028B7F90932902809328028D2FE1
:102260000E94271C0E94AC1C3EC18C2F837009F079
:1022700050C0111134C18D2F829586958770880FBB
:10228000880F9D2F9F70492E512C612C712C082E88
:1022900004C0440C551C661C771C0A94D2F7D4FF6A
:1022A00014C00FE010E020E030E0B901A80104C044
:1022B000440F551F661F771F8A95D2F7CB01BA01CD
:1022C000609570958095909503C060E070E0CB01BB
:1022D000C695C695C370D0E0C230D10561F0C33059
:1022E000D10581F06429752986299729219771F0F4
:1022F0000E94CA16F4C064297529862997290E946C
:10230000DC16EDC00E94CA16C301B2010E94B816C5
:10231000E6C0112319F08C2F817001C086958823A7
:1023200009F4DDC08D2F829586958770880F880F00
:102330009D2F9F70492E512C612C712C082E04C0AA
:10234000440C551C661C771C0A94D2F7D4FF14C0A9
:102350000FE010E020E030E0B901A80104C0440F14
:10236000551F661F771F8A95D2F7CB01BA0160957A
:1023700070958095909503C060E070E0CB01C695A4
:10238000C695C3704C2F50E04230510569F0433080
:10239000510589F06429752986299729413051050D
:1023A00071F00E9490179BC064297529862997298E
:1023B0000E94A21794C00E949017C301B2010E940C
:1023C0007E178DC08D2F90E0FC01E05EF109E531B4
:1023D000F10508F04FC0E858FF4F0C94F729DF7063
:1023E0008C2F8F71112331F00E9417178D2F0E94AF
:1023F0001F1069C00E9438178D2F0E94261063C0DD
:10240000112341F0053008F05EC08C2F8F710E94BF
:102410005D1759C0063008F056C0F7CF112339F0C8
:102420008C2F8F710E9417174EC01123C9F38C2F68
:102430008F710E94381747C0112329F08C2F8F719C
:102440000E94021740C00E94FD163DC0112349F0B2
:10245000CF718C2F0E94171763E08C2F0E94871872
:1024600032C081E00E949018023068F182E00E9440
:10247000901829C0112331F0002391F28D2F0E9472
:10248000A20E21C0002399F2D93349F45FEF67EE21
:1024900073E0515060407040E1F700C000008D2FA4
:1024A0000E94B90F10C04C2F4F706D2FC7010E94B2
:1024B00011090E942B1617C04C2F4F706D2FC701AA
:1024C0000E94140910C088E0C816D10441F05CF0E5
:1024D000EAE0CE1AD108F2E0CF16D10420F40E942F
:1024E000EB0C0E948607BB20F1F00E94831880FD50
:1024F0001AC0F70112820E947D180E941717C701A7
:102500000E94A1120E947D18DF91CF911F910F911F
:10251000FF90EF90DF90CF90BF907F906F905F9093
:102520004F900C943817DF91CF911F910F91FF902E
:10253000EF90DF90CF90BF907F906F905F904F9023
:1025400008950F931F93CF93DF93EC0188819981B6
:102550002B813C81232BB9F09F3F11F48F3F99F0E1
:10256000CE010E949E07882371F0688179818A815B
:102570000E945A188C010E94B4170E94B516B80127
:10258000CE010E942D10DF91CF911F910F910895E0
:102590000E9401190E94111980910001909101017E
:1025A0000E941C1A0E94AE180E94D41D0E94AC1CEE
:1025B00080E090E00E944B0D80E090E00C94610D73
:1025C0000E94F1180C94C8120E944F18E92FE2954E
:1025D000EF70F0E03297EE30F105B0F4E357FF4FC3
:1025E0000C94F729803F91F018F4803E68F40EC0F7
:1025F000843F51F40BC0803E48F0813F29F406C06F
:1026000093FB882780F9089580E0089581E008957C
:10261000CF93DF9300D000D01F92CDB7DEB70F90DD
:102620000F900F900F900F90DF91CF910895CF935F
:10263000DF9300D000D000D0CDB7DEB726960FB61E
:10264000F894DEBF0FBECDBFDF91CF9108951F93E9
:10265000CF93DF93C091720116E080917301C81788
:1026600099F0D0E01C9FF0011D9FF00D1124EC5853
:10267000FE4F4081518162817381848195810E94E6
:1026800017132196C770E9CFDF91CF911F9108955D
:102690004091A4015091A5016091A6017091A701FC
:1026A0008091A8019091A9010C9417138091A90120
:1026B00082958F7009F054C08091A601882309F497
:1026C0004FC080917201A09173016091A40170913B
:1026D000A5014091A7015091A801B6E08A1709F41D
:1026E0003FC090E041155105C1F17F3F11F46F3FAC
:1026F000A1F1B89FF001B99FF00D1124EC58FE4FE5
:10270000218172132AC02081621327C022812111E6
:1027100024C0238134812417350710F42150310956
:10272000241B350B283C3105C0F42091A9012F70E2
:1027300020612093A90126E0289FF001299FF00D38
:102740001124E758FE4F80818F708061808384EA76
:1027500091E00E94A1120C94271301968770BECFBE
:102760000895CF92DF92EF92FF920F931F93CF9332
:10277000DF93CDB7DEB762970FB6F894DEBF0FBE1A
:10278000CDBF8C0185E0F801DE011D9601900D9210
:102790008A95E1F7D8014C9111965C9111971296A8
:1027A0006C9112971396CD90DC9014973091A40100
:1027B0007091A5018091A7019091A801009709F45B
:1027C0006BC17F3F19F43F3F09F466C1E090A60159
:1027D000EE2009F4C0C02091A901C816D90628F03E
:1027E000F601E81BF90BCF0104C0809590958C0D84
:1027F0009D1DFF24F394883C910578F0F12C207FF7
:1028000009F0C6C07C2DD98AC88A89890E9408131C
:1028100084EA91E00E94A112B1C0822F807F09F06A
:1028200046C0751314C0341312C0611110C02F704C
:1028300020612093A9010E94481384EA91E00E943C
:10284000A1128091A901D80115968C932EC0CD2894
:1028500019F15F3F11F44F3FF9F0F62E61111CC0E2
:10286000809172012091730136E0821709F45AC0F9
:1028700090E0389FF001399FF00D1124EC58FE4F85
:102880007181571306C07081471303C072817111A3
:1028900003C001968770E9CFF62E662309F427C19D
:1028A0008091A90181608093A901F12C20C1751349
:1028B00008C0341306C0611104C08091A901D80179
:1028C000C3C04D875E878D859E856A8B0E94E4120A
:1028D0006A898823E1F16623D1F12091A901822F31
:1028E00082958F7090E0029774F08091A40190918E
:1028F000A50198878F831986DB86CA862C87CE012F
:1029000007960E94A11286E0F801A4EAB1E00190C6
:102910000D928A95E1F70E9456130E944813FF24F6
:10292000F394E5C04D875E878D859E850E944F1884
:10293000292F22952F7030E0223031050CF0CBC0CA
:102940009F7009F0C5C0805E883008F4D0C0C8010F
:102950000E94A112E4CFC816D90608F453C0F601AC
:10296000E81BF90BCF01883C910508F450C0F12C0D
:102970007C2DD98AC88A89890E940813E4EAF1E08B
:1029800086E0DF011D928A95E9F70E944813AFC0E7
:10299000751314C0341312C0611110C08091A901C5
:1029A000F8018583C8010E94A11286E0E4EAF1E003
:1029B000DF011D928A95E9F7FE2C99C04D875E874D
:1029C0008D859E856A8B0E94E4126A89882309F4AA
:1029D000BECF662309F4BBCF2091A901822F829537
:1029E0008F7090E002970CF48ECF8091A4019091AB
:1029F000A5019A8389831B82DD82CC822E83CE013E
:102A000001967FCF809590958C0D9D1DACCFF62EB5
:102A1000662309F49CCF75132EC034132CC020916B
:102A2000A90120FD1FC0822F82958F70D9F0D80197
:102A300015962C9315978F3049F08F5F982F9295AC
:102A4000907F822F8F70892B15968C93C8010E94DE
:102A5000A11286E0F801A4EAB1E001900D928A95F6
:102A6000E1F793CF86E0F801A4EAB1E001900D927E
:102A70008A95E1F73CC04D875E878D859E850E94D3
:102A8000E412811140CF8091A90181608093A90156
:102A9000C8010E94A1122BC0662309F458CF4D87AC
:102AA0005E878D859E850E94E412F82E882309F4A6
:102AB0004ECF86E0F801A4EAB1E001900D928A952C
:102AC000E1F784EA91E00E949C0E0E9456135DCFCC
:102AD000811139CF0CC0243031050CF038CF9F70F4
:102AE00009F431CFF8019581907F09F02CCF8F2D1B
:102AF00062960FB6F894DEBF0FBECDBFDF91CF91C7
:102B00001F910F91FF90EF90DF90CF9008951F934A
:102B1000CF93DF93CDB7DEB72C970FB6F894DEBF17
:102B20000FBECDBF4F83588769877A878B879C8775
:102B3000CE0107960E94B113882369F08F81988592
:102B40002A853B85232BF1F19F3F09F063C08F3F1E
:102B500009F060C037C086E0FE013796DE011196AD
:102B600001900D928A95E1F76F817885EA85FB8562
:102B7000309741F17F3F11F46F3F21F120917301B4
:102B800030E0C9010196877099274091720150E0A9
:102B90008417950709F447C069837A83FD83EC8322
:102BA00096E0929FD001939FB00D1124AC58BE4F78
:102BB000FE01319601900D929A95E1F78093730191
:102BC0000E94271316E0809172019091730189177A
:102BD000C1F1189FC00111248C589E4F0E94B1135F
:102BE000882379F1E09172011E9FF0011124EC58C5
:102BF000FE4F4081518162817381848195810E9461
:102C000017138091720190E0019687709927809345
:102C10007201D9CF4F81588569857A858B859C85CE
:102C20000E941713CFCF0E94E012109273011092EE
:102C30007201E4EAF1E086E0DF011D928A95E9F78E
:102C4000C1CF2C960FB6F894DEBF0FBECDBFDF917B
:102C5000CF911F910895EF92FF920F931F93CF93FF
:102C6000DF938C01892B09F46CC0F12CEE24E394E2
:102C7000E8012196F8018491843740F4843008F00B
:102C800051C0813081F0823019F15BC0853709F481
:102C900044C0A8F19CE7980F903708F052C08F7796
:102CA0000E94B90F41C00E5F1F4FFE01C49180E228
:102CB0008C0F883048F4C7708E2D01C0880FCA95DC
:102CC000EAF70E94041914C08C2F0E94A20E2DC096
:102CD0000E5F1F4FFE01C49180E28C0F883058F4C4
:102CE000C7708E2D01C0880FCA95EAF70E940A1995
:102CF0000E94AE181AC08C2F0E94B90F16C00E5F2A
:102D00001F4FFE01C491CC2381F08FE99FE0019712
:102D1000F1F700C00000C150F6CF0E5F1F4FFE015B
:102D2000F49003C00E94A20E8E018F2D882309F417
:102D30009FCFEFE9FFE03197F1F700C0000081502D
:102D4000F5CFDF91CF911F910F91FF90EF900895F4
:102D500008950E94A8166093CC017093CD018093D2
:102D6000CE019093CF010C94C81208950C94A9162B
:102D70000F931F930091CC011091CD012091CE01B2
:102D80003091CF01602B712B822B932B1F910F91D0
:102D90000C94A9160F931F930091CC011091CD01B3
:102DA0002091CE013091CF016023712382239323A0
:102DB0001F910F910C94A9160F931F930091CC01B2
:102DC0001091CD012091CE013091CF016027712764
:102DD000822793271F910F910C94A91608950C94A4
:102DE000EE160E94EF166093C8017093C90180939C
:102DF000CA019093CB010C94C81260E070E0CB0143
:102E00000C94F1160F931F9341E050E060E070E0E6
:102E10008A019B0104C0000F111F221F331F8A95D6
:102E2000D2F7C901B8011F910F910C94F1160F93BD
:102E30001F9341E050E060E070E004C0440F551F74
:102E4000661F771F8A95D2F78091C8019091C901BA
:102E5000A091CA01B091CB018A019B01082B192BCB
:102E60002A2B3B2BC901B8011F910F910C94F1162D
:102E70000F931F9341E050E060E070E004C0440F06
:102E8000551F661F771F8A95D2F74095509560951C
:102E900070958091C8019091C901A091CA01B0912B
:102EA000CB018A019B01082319232A233B23C90153
:102EB000B8011F910F910C94F1160F931F9341E0ED
:102EC00050E060E070E004C0440F551F661F771F9C
:102ED0008A95D2F78091C8019091C901A091CA0149
:102EE000B091CB018A019B01082719272A273B278C
:102EF000C901B8011F910F910C94F1160F931F9304
:102F00000091C8011091C9012091CA013091CB01F3
:102F1000602B712B822B932B1F910F910C94F11628
:102F20000F931F930091C8011091C9012091CA010C
:102F30003091CB0160237123822393231F910F9142
:102F40000C94F1160F931F930091C8011091C901C1
:102F50002091CA013091CB016027712782279327E6
:102F60001F910F910C94F11608952BE0929F800D04
:102F70001124A82FA695A695A695877051E001C0AB
:102F8000550F8A95EAF785E0A89FD001112420E02B
:102F900030E070E0F901EA0FFB1FE655FE4F40817B
:102FA000CB01022E02C0969587950A94E2F78170B4
:102FB0009927819584278523842780832F5F3F4F1E
:102FC0002530310539F708952BE0929F800D1124AB
:102FD000682F669566956695982F977085E0689F2F
:102FE000B001112440E050E080E0FA01E60FF71F45
:102FF000E655FE4F208130E0092E02C03695279518
:103000000A94E2F721703327042E01C0220F0A949C
:10301000EAF7822B4F5F5F4F4530510531F7089536
:10302000CF92DF92EF92FF920F931F93CF93DF9394
:103030008C01C090CC01D090CD01E090CE01F090F9
:10304000CF018091C8019091C901A091CA01B091AE
:10305000CB01C82AD92AEA2AFB2ACFE1D0E0D7013E
:10306000C6010C2E04C0B695A795979587950A942E
:10307000D2F780FF06C0B8018C2F0E942F0901975C
:1030800021F4219760F780E001C08C2FDF91CF9170
:103090001F910F91FF90EF90DF90CF900895CF9305
:1030A000DF93EC010E941018BE010E942F09DF91EE
:1030B000CF9108951F93CF93DF93EB01909171010E
:1030C000992321F0CB010E944F1813C0882349F0A7
:1030D000CB010E941018182F682FCE010E94B5173F
:1030E00004C0CB010E94E417182FBE01812F0E945B
:1030F0002F09DF91CF911F9108958091D00185957F
:103100008595859508958091D0018770089598E000
:10311000899F90011124262B2093D0010C9417171E
:103120002091D001809582238093D001982F9770B1
:1031300069F430E0482F082E000C550B2417350792
:1031400029F08595859585950C943817089590916B
:10315000D001977081E009F480E00895E0910001CA
:10316000F09101018091F4018083E0910001F091E0
:10317000010190818091F301892B8083E09100010E
:10318000F091010190818091F201892B80838091DF
:10319000D101882381F0E0910001F091010190813B
:1031A000892B808380910001909101010E948819F0
:1031B00081111092D10180910001909101010C9434
:1031C000F70C8091F40108959091F401892B80937C
:1031D000F401089580959091F40189238093F4017E
:1031E00008951092F40108959091F301892B809332
:1031F000F301089580959091F30189238093F30161
:1032000008951092F30108959091F201892B809313
:10321000F201089580959091F20189238093F20143
:1032200008951092F20108958093D10108951092AB
:10323000D10108958091D101089590934701809321
:10324000460108958295982F9C7C392F36953695A6
:10325000282F237344E0249FC0011124932F982B1F
:10326000292F2A7A2695892F8575880F822B089514
:103270001F93CF93DF931F92CDB7DEB799830E9440
:103280002219182F9981892F0E942219212F30E0AD
:10329000322F2227A901482BCA010F90DF91CF912D
:1032A0001F9108956DEE7EEF80E090E00E94312A3C
:1032B00060E082E090E00E941F2A60E083E090E0FE
:1032C0000E941F2A60E084E090E00E941F2A60E0D4
:1032D00085E090E00C941F2A80E090E00E94192A7B
:1032E00021E08D3E9E4F09F020E0822F089582E07C
:1032F00090E00C94112A83E090E00C94112A84E071
:1033000090E00C94112A682F84E090E00C941F2A1E
:10331000FC0131969C01205E3F4F80E0919191111C
:103320008F5FE217F307D1F708959C01FC013296F5
:103330009FEF80E04191461789F09F3F19F44111BA
:1033400001C0982F8F5F8E31A9F79F3F39F0F901A7
:10335000E90FF11D97FDFA95628308950895FC0128
:10336000329680962081261301C010823196E8178C
:10337000F907C1F70895262F2695269526952F3112
:1033800070F4FC01E20FF11D677021E030E001C034
:10339000220F6A95EAF78181282B21830895809175
:1033A000F50180FF0CC01F926F938CE893E09F9310
:1033B0008F930E9470070F900F900F900F900895B9
:1033C000262F2695269526952F3178F4FC01E20FBD
:1033D000F11D677021E030E001C0220F6A95EAF725
:1033E000209581812823218308958091F50180FF14
:1033F0000CC01F926F938EE693E09F938F930E9471
:1034000070070F900F900F900F9008952091120168
:10341000222329F020912E0227FD0C94BB190C9435
:10342000951920911201222329F020912E0227FDC7
:103430000C94E0190C94AF19FC013196809611920E
:10344000E817F907E1F7089508950C94241A0E94EB
:10345000251A80913402843049F11092F60120E45B
:1034600088E190E00FB6F894A895809360000FBEB5
:103470002093600080E00E9486070E94251A83B78F
:10348000817F846083BF83B7816083BF7894889590
:1034900083B78E7F83BF0FB6F894A89580916000A4
:1034A000886180936000109260000FBE08950895B7
:1034B0000895CF930E94571A0E94D40B0E94581A65
:1034C000C0E08C2F0E94960C892B29F4CF5FC4306A
:1034D000C1F780E001C081E0CF91089508950C9478
:1034E0006E1A0E94E0120E94EB0C0E9486070C9458
:1034F0006F1A1F920F920FB60F9211248F939F9302
:10350000AF93BF938091F601811113C080912A027D
:1035100090912B02A0912C02B0912D024196A11DF9
:10352000B11D80932A0290932B02A0932C02B0939A
:103530002D02BF91AF919F918F910F900FBE0F9071
:103540001F90189582E084BD93E095BD9AEF97BDDA
:1035500080936E0008952FB7F89480912A0290917D
:103560002B02A0912C02B0912D022FBF08952FB7EE
:10357000F89460912A0270912B0280912C02909114
:103580002D022FBF0895CF92DF92EF92FF920F93FB
:103590001F932FB7F89440912A0250912B0260910B
:1035A0002C0270912D022FBF6A017B01EE24FF24B3
:1035B0008C0120E030E0C016D106E206F30610F4DC
:1035C000415051099A01281B390BC9011F910F91D4
:1035D000FF90EF90DF90CF90089578941F920F9214
:1035E0000FB60F9211248F939F93AF93BF93809147
:1035F0002A0290912B02A0912C02B0912D020196EB
:10360000A11DB11D80932A0290932B02A0932C023E
:10361000B0932D02BF91AF919F918F910F900FBEEC
:103620000F901F90189587E797E790930108809374
:1036300000089AE088E10FB6F894A895809360009E
:103640000FBE90936000FFCF0E946C19811102C0E1
:103650000E9452190E9477198093F5010E947F19E8
:1036600090E090932F0280932E020E947B19682F86
:1036700070E080E090E00C94B6168091F90180FF34
:103680000BC06091050185E0689FB001112475951C
:103690006795759567952BC081FF09C060910501FD
:1036A00085E0689FB00111247595679520C082FF61
:1036B00007C06091050185E0689FB001112417C023
:1036C0009091FA019923D1F060910401961788F73F
:1036D0002091050185E0289F90011124929FA0016F
:1036E000939F500D112470E0CA010E94E3296038B5
:1036F000710540F46115710539F002C065E070E0B4
:10370000862F08958FE7089581E008958091F9014B
:1037100080FF08C06091030170E07595679575950D
:10372000679521C081FF06C06091030170E0759527
:10373000679519C082FF04C06091030170E010C05A
:103740009091FA019923C1F0609102019617A0F7B8
:1037500080910301899FC001112470E00E94E32938
:103760006038710528F46115710521F0862F0895E0
:103770008FE7089581E0089561E070E0F4CF803F25
:1037800021F40E943D1B819504C0813F29F40E94D1
:103790003D1B8093FD010895823F21F40E943D1B53
:1037A000819504C0833F29F40E943D1B8093FC0156
:1037B0000895893F19F40E94861B05C08A3F31F4A1
:1037C0000E94861B81958093FE0108958B3F21F412
:1037D0000E94861B819504C08C3F29F40E94861BA1
:1037E0008093FF010895843F21F48091FB01816063
:1037F00017C0853F21F48091FB01826011C0863F94
:1038000021F48091FB0184600BC0873F21F48091FB
:10381000FB01886005C0883F31F48091FB01806125
:103820008093FB0108958D3F21F48091F90181601F
:103830000BC08E3F21F48091F901826005C08F3F5B
:1038400029F48091F90184608093F9010895803F03
:1038500039F48091FD0187FF6CC01092FD0169C0B1
:10386000813F29F48091FD011816BCF362C090914C
:10387000FC01823F29F497FF5CC01092FC0159C003
:10388000833F19F41916CCF354C0893F41F4809159
:10389000FE0118160CF04DC01092FE014AC08A3F7E
:1038A00029F48091FE0187FF44C0F6CF8B3F39F4A5
:1038B0008091FF0187FF3DC01092FF013AC08C3F0D
:1038C00029F48091FF011816BCF333C0843F21F422
:1038D0008091FB018E7F17C0853F21F48091FB0111
:1038E0008D7F11C0863F21F48091FB018B7F0BC03F
:1038F000873F21F48091FB01877F05C0883F31F429
:103900008091FB018F7E8093FB0113C08D3F21F4DA
:103910008091F9018E7F0BC08E3F21F48091F901D7
:103920008D7F05C08F3F29F48091F9018B7F8093B3
:10393000F9018091FC0181110EC08091FD0181117E
:103940000AC08091FE01811106C08091FF018111A2
:1039500002C01092FA0108958091F50183FF7EC0A4
:1039600081ED93E00E94D7068091FB011F928F9317
:103970008CEC93E09F938F930E9470078AEC93E006
:103980000E94D7068091FC01282F082E000C330BD3
:103990003F938F9387EC93E09F938F930E947007E0
:1039A00085EC93E00E94D7068091FD01282F082E18
:1039B000000C330B3F938F9382EC93E09F938F9394
:1039C0000E94700780EC93E00E94D7068091FE0170
:1039D000282F082E000C330B3F938F938DEB93E031
:1039E0009F938F930E9470078BEB93E00E94D70602
:1039F0008091FF01282F082E000C330B3F938F93EB
:103A000088EB93E09F938F930E94700785EB93E080
:103A10000E94D7068091FA011F928F9382EB93E068
:103A20009F938F930E94700780EB93E00E94D706CC
:103A30008091F9011F928F938DEA93E09F938F936A
:103A40000E9470078AEA93E00E94D7068DB79EB75E
:103A50004C960FB6F8949EBF0FBE8DBF8BEF91E0D2
:103A60000E94400D0E94AB1A9093F8018093F701D9
:103A700008951F93CF93DF938091F7019091F80100
:103A80000E94C31AAC019091FA01992321F0209170
:103A9000060130E006C0209107018AE0289F9001CE
:103AA00011244217530708F47BC08091FC01C09198
:103AB000FD01D091FE011091FF01811107C0C111DC
:103AC0006BC0D11169C0111167C06AC09F3F19F066
:103AD0009F5F9093FA01181624F40E943D1B809377
:103AE000FC018091FC0187FF05C00E943D1B819570
:103AF0008093FC011C1624F40E943D1B8093FD0161
:103B00008091FD0187FF05C00E943D1B8195809338
:103B1000FD013091FC013323E1F02091FD012223CE
:103B2000C1F045EB3403C0011124892F990F990B83
:103B3000009709F481E08093FC0135EB2303C00179
:103B40001124892F990F990B009709F481E0809334
:103B5000FD011D1624F40E94861B8093FE018091B6
:103B6000FE0187FF05C00E94861B81958093FE01A0
:103B7000111624F40E94861B8093FF018091FF019F
:103B800087FF05C00E94861B81958093FF01DF910E
:103B9000CF911F910C94AC1C9F3F09F099CFA1CFFE
:103BA000DF91CF911F910895EBEFF1E085E0DF0108
:103BB0001D928A95E9F71092FA011092F901089581
:103BC00084EF95E00E94D7061F9281E08F931F92A9
:103BD00085E08F9386EA95E09F938F930E9470070C
:103BE0000F900F900F900F900F900F9008958330CB
:103BF000E9F128F4813061F0823009F108958530CF
:103C000009F462C008F449C0863009F474C008950C
:103C100080910701262F30E0280F311D2F3F3105FD
:103C200024F4680F6093070103C08FEF80930701AE
:103C3000809107011F928F938FED94E072C0809165
:103C40000601262F30E0280F311D2F3F310524F4C7
:103C5000680F6093060103C08FEF80930601809187
:103C600006011F928F938DEC94E05BC0809105015B
:103C7000262F30E0280F311D2F3F310524F4680F27
:103C80006093050103C08FEF8093050180910501CA
:103C90001F928F938AEB94E044C080910401262FF9
:103CA00030E0280F311D2F3F310524F4680F609359
:103CB000040103C08FEF80930401809104011F92DF
:103CC0008F9385EA94E02DC080910301262F30E088
:103CD000280F311D2F3F310524F4680F6093030135
:103CE00003C08FEF80930301809103011F928F9394
:103CF0008CE894E016C080910201262F30E0280F56
:103D0000311D2F3F310524F4680F6093020103C079
:103D10008FEF80930201809102011F928F9381E7C0
:103D200094E09F938F930E9470070F900F900F90D5
:103D30000F900895833081F128F4813059F082305A
:103D4000D1F00895853009F449C0B8F1863009F4FE
:103D500056C0089580910701681720F4861B809350
:103D6000070102C010920701809107011F928F93F3
:103D700082E694E054C080910601681720F4861B07
:103D80008093060102C010920601809106011F92E5
:103D90008F9380E594E043C080910501681720F47B
:103DA000861B8093050102C01092050180910501D8
:103DB0001F928F938DE394E032C0809104016817C5
:103DC00020F4861B8093040102C0109204018091AC
:103DD00004011F928F9388E294E021C08091030137
:103DE000681720F4861B8093030102C01092030120
:103DF000809103011F928F938FE094E010C0809117
:103E00000201681720F4861B8093020102C0109201
:103E10000201809102011F928F9384EF93E09F93A0
:103E20008F930E9470070F900F900F900F9008953E
:103E3000CF93C82F1F928F9389EF96E09F938F9314
:103E40000E94700781E090E0A0E0B0E0BC01CD01ED
:103E500004C0660F771F881F991FCA95D2F70E946A
:103E6000B6160F900F900F900F90CF910C94E01218
:103E7000CF938732A8F58E3108F032C1803109F432
:103E80009FC0F8F4873009F465C0A8F4863009F0C3
:103E90002DC18091F501817F8E7F8093F50184E8AB
:103EA00098E00E94D70685EE9AE00E94D70681E04E
:103EB000809301024DC08B30F1F18E3009F46CC05B
:103EC00015C1863109F4B0C020F4813109F4F0C085
:103ED0000DC1893109F491C08B3109F449C006C183
:103EE000883349F150F4893209F4FCC0853309F470
:103EF000F9C0873209F4F6C0F9C0833409F4F2C07E
:103F000028F48A3308F4F2C08953EDC0883409F0EC
:103F1000EDC00E94E01289EC9AE00E94D7062FEFD4
:103F200083ED90E3215080409040E1F700C0000015
:103F30000E94131B0DC08BEA98E05CC080EB9AE0F6
:103F40000E94D7068091F501897F877F8093F501D4
:103F5000C1E0D1C08091F501C82FC095C170C0FBF0
:103F600080F98093F501CC2349F38DEB9AE0B2C040
:103F70009091F50191FBCC27C0F981E0C827892FEA
:103F8000C0FB81F98093F501CC2319F083EA9AE014
:103F900027C085E99AE02EC09091F50192FBCC27CD
:103FA000C0F981E0C827892FC0FB82F98093F50111
:103FB000CC2319F086E89AE013C086E79AE01AC08D
:103FC0009091F50193FBCC27C0F981E0C827892F98
:103FD000C0FB83F98093F501CC2351F08AE69AE087
:103FE0000E94D7068091F50181608093F50183C01E
:103FF0008DE59AE00E94D706ABCF85E798E00E9456
:10400000D7068AE498E00E94D70680E198E00E94F3
:10401000D70688EE97E00E94D7068DEA97E00E94C7
:10402000D7068FE797E0E6CF81E797E00E94D706B3
:104030000E94EB0C1F928F9387E597E09F938F93DD
:104040000E947007809112011F928F9380E497E085
:104050009F938F930E947007809126021F928F93E7
:104060008DE297E09F938F930E94700780912E02BC
:1040700087FB882780F91F928F9385E197E09F93B4
:104080008F930E9470070E94B71A9F938F937F931C
:104090006F938EEF96E09F938F930E9470078DB77A
:1040A0009EB746960FB6F8949EBF0FBE8DBF50CFF9
:1040B0000E94E01290912E0297FBCC27C0F981E07C
:1040C000C827892FC0FB87F980932E02CC2329F0C3
:1040D00083E59AE00E94D7060EC088E49AE08ACF72
:1040E0008D5101C080E00E94181F32CF86E49AE013
:1040F0000E94D706C0E08C2FCF91089580E00895EC
:1041000080E008958E518A3030F4E82FF0E0EE5DC3
:10411000FE4F8081089580E00895CF93C82F80914D
:104120000102813071F020F0823009F44BC03FC1B0
:10413000E0910001F09101018081823209F039C1E2
:1041400007C0E0910001F09101018081823261F4A9
:104150008C2F0E947E20811104C08C2F0E94381F5A
:104160002FC081E090E02CC08C2F0E948020811114
:1041700026C0C431E1F070F4CB3081F0C031D1F40D
:104180000E94E01D81EF96E00E94D70682E08093B6
:10419000010215C0C93259F0C83361F484E898E0CF
:1041A0000E94D70685EF96E00E94D70608C01092BD
:1041B000010201C18FEE96E00E94D706FCC081E0AB
:1041C0008170FBC0C43228F5CE3108F0C1C0CB30BD
:1041D000A1F1D0F4C73009F0D0C08EE1809307017F
:1041E00082E3809306018AE08093050184E1809355
:1041F000040188E08093030188E28093020185E94D
:1042000095E00E94D706BCC0C33149F1C431C1F06A
:10421000B4C0CB3409F4A6C028F4C93289F0C8333D
:1042200061F0ABC0C13509F49BC0C23509F496C03A
:10423000CE3409F0A2C06AE09BC00E94E01DA0C07D
:1042400080910002882319F01092000299C082EA3E
:1042500095E00E94D70681E080930102AEC08CE712
:1042600095E00E94D7068AE695E00E94D7068091E5
:1042700007011F928F9387E695E09F938F930E948B
:10428000700785E695E00E94D70683E595E00E94D9
:10429000D706809106011F928F9380E595E09F934A
:1042A0008F930E9470078EE495E00E94D7068FE3FB
:1042B00095E00E94D706809105011F928F938CE3B1
:1042C00095E09F938F930E9470078AE395E00E9488
:1042D000D70689E295E00E94D706809104011F92DB
:1042E0008F9386E295E09F938F930E94700784E2FC
:1042F00095E00E94D7068FE095E00E94D706809156
:1043000003011F928F938CE095E09F938F930E94FF
:1043100070078AE095E00E94D70683EF94E00E9440
:10432000D706809102011F928F9380EF94E09F93B4
:104330008F930E9470078EEE94E00E94D7068DB78F
:104340009EB748960FB6F8949EBF0FBE8DBF18C09B
:104350008C2F0E9482208093000212C061E003C073
:1043600061E006C06AE0809100020E94F71D08C06B
:10437000809100020E949A1E03C083E995E013C059
:1043800080910002882369F01F928F938DE895E059
:104390009F938F930E9470070F900F900F900F9034
:1043A00004C08AE895E00E94D70681E006C010921A
:1043B000010280E002C080E003CFCF910895809198
:1043C000250208959FB7F894109204029FBF909120
:1043D0003402943009F057C09091E9009F703091F9
:1043E000EC00232F217030FD20E8922B24E0209355
:1043F000E9002091EB0020FF43C02091EE0027FF51
:104400003FC020910202222321F02091E80025FFE5
:1044100037C01092020226E03091E80035FD15C049
:1044200030913402343061F53091EB0035FD28C015
:10443000215021F481E08093020222C0EFE9FFE0E5
:104440003197F1F700C00000E7CF8093F100809131
:10445000E80085FD0AC08091E80080FFFCCF8091D4
:10446000E8008E778093E80006C08FB7F89421E0CB
:10447000209304028FBF9F709093E90080E008951D
:104480009F709093E9008FEF08950F931F93CF9340
:10449000DF9300D01F92CDB7DEB78C010E941F259D
:1044A000823011F0843019F593E099831B830A83DD
:1044B0009093E9008FEF9091E800815095FD06C040
:1044C00095ED9A95F1F700008111F5CF8091E80004
:1044D00085FF0DC040E050E063E070E0CE01019642
:1044E0000E943C258091E8008E778093E8000F9031
:1044F0000F900F90DF91CF911F910F910895CF935F
:10450000DF9300D01F92CDB7DEB720913402243064
:1045100031F522E02983805891099B838A8383E0C7
:104520008093E9008FEF9091E800815095FD06C0DF
:1045300095ED9A95F1F700008111F5CF8091E80093
:1045400085FF0DC040E050E063E070E0CE010196D1
:104550000E943C258091E8008E778093E8000F90C0
:104560000F900F90DF91CF910895CF93DF93EC01DF
:104570000E941F25823011F08430F9F482E080938C
:10458000E9009FEF8091E800915085FD06C085ED20
:104590008A95F1F700009111F5CF8091E80085FF31
:1045A0000CC040E050E065E070E0CE010E943C2588
:1045B0008091E8008E778093E800DF91CF91089595
:1045C000CF93DF93EC010E941F25823019F08430D5
:1045D00009F047C0809112018823E1F080912E02FA
:1045E00087FF18C085E08093E9008FEF9091E80085
:1045F000815095FD06C095E19A95F1F70000811173
:10460000F5CF8091E80085FF2CC040E050E060E2EB
:1046100070E017C081E08093E9008FEF9091E8008F
:10462000815095FD06C095ED9A95F1F70000811136
:10463000F5CF8091E80085FF14C040E050E068E0CD
:1046400070E0CE010E943C258091E8008E77809337
:10465000E80080E2FE01A5E0B2E001900D928A95AB
:10466000E1F7DF91CF9108958EE09BE00E94D7069D
:1046700080913302811109C00E94D1260E942E2709
:104680008091E20084608093E20008958AE09BE0DC
:104690000E94D70610923302089586E09BE00C94A6
:1046A000D70682E09BE00C94D7068EEF9AE00E943A
:1046B000D7060C94711A209103022F5F822F62E3B8
:1046C0000E94D729992319F020930302089510928C
:1046D000030280910402882371F1809134028430B6
:1046E00041F58091E9008F702091EC00922F91703C
:1046F00020FD90E8892B94E09093E9009091EB00E5
:1047000090FF14C09091EE0097FF10C09091E800C8
:1047100095FF03C01092F100F9CF9091E80090FF4F
:1047200005C09091E8009E779093E8008F70809389
:10473000E90010920402089542E061EC81E00E94D9
:104740004B2642E061EC82E00E944B2642E061ECA5
:1047500083E00E944B2642E261EC84E00E944B26FB
:1047600042E261EC85E00C944B2680913602833066
:1047700009F455C030F4813071F0823009F48EC0F4
:1047800008958A3009F47AC08B3009F460C089300A
:1047900009F09CC020C080913502813A09F096C092
:1047A0008091E800877F8093E800809139029091A2
:1047B0003A02892B21F460E285E092E003C060E0D8
:1047C00080E090E070E00E9487258091E8008B7780
:1047D0008093E800089580913502813209F076C017
:1047E0008091390290913A02009719F0049709F0EC
:1047F0006DC08091E800877F8093E8008091E80099
:1048000082FD05C0809134028111F8CF5FC0809194
:10481000F100809325028091E8008B7753C080914E
:104820003502813A09F052C08091390290913A02E2
:10483000892B09F04BC08091E800877F8093E800C6
:104840008091E80080FFFCCF8091120136C08091FA
:1048500035028132D9F58091390290913A02892B43
:10486000A9F58091E800877F8093E8000E94802668
:1048700080913702809312010C94E01280913502EE
:10488000813221F58091E800877F8093E8000E94C3
:104890008026809138028093260208958091350207
:1048A000813AA1F48091E800877F8093E8008091AD
:1048B000E80080FFFCCF809126028093F100809178
:1048C000E8008E778093E8000C948026089584B7E2
:1048D000877F84BF0FB6F894A895809160008861A7
:1048E00080936000109260000FBE80E880936100AA
:1048F000109261000E94780D0E94D1260E942E27FE
:104900008091E20084608093E20082EE91E20E9456
:104910001D1978940E94BC290E947C0D88E091E0CA
:104920000E94E60C8DEE9AE00E94D7068091340238
:10493000853089F489EE9AE00E94D7060E94271AF2
:1049400080913202882391F30E94591A882371F3CF
:104950000E942625EBCF0E94B00DE8CF0C94B02426
:10496000292F332723303105C9F064F42130310574
:1049700081F02230310509F049C08DE890E026E44D
:104980003BE048C02132310521F12232310571F17D
:104990003DC082E190E023ED3BE03CC099278130AF
:1049A000910571F02CF4892B89F5E2E4FBE00DC050
:1049B0008230910541F0039749F5E2E1FBE005C043
:1049C000E8E2FBE002C0E8E1FBE0849190E09F01B7
:1049D00021C065307105D0F4660F771FFB01E55CDF
:1049E000FE4F2081318189E090E014C0653071056F
:1049F00068F4FB01EE0FFF1FEF5CFE4F2081318159
:104A0000FB01E45DFE4F808190E004C080E090E017
:104A100020E030E0FA013183208308950895CF9398
:104A2000C82F0E940E25C0932702CF910895809130
:104A30003402843011F081E0089582E0089580917D
:104A40002702811102C00C941725089580E189BDC9
:104A500082E189BD09B400FEFDCF8091D8008F7D31
:104A60008093D8008091E00082608093E000809184
:104A7000E00081FDFCCF0895CF92DF92EF92FF928C
:104A80000F931F93CF93DF93EC018B016A010E9478
:104A90009F26811133C0C114D10439F0F601808101
:104AA0009181081B190BC80FD91FE12CF12C01159E
:104AB000110519F18091E80085FD16C08091E8008C
:104AC0008E778093E800C114D10449F0F60180810B
:104AD0009181E80EF91EF182E08285E00FC00E940C
:104AE0009F26882321F30AC089918093F100015009
:104AF0001109FFEFEF1AFF0ADACF80E0DF91CF91C3
:104B00001F910F91FF90EF90DF90CF90089520912B
:104B10003B0230913C022617370748F061157105BA
:104B200039F42091E8002E772093E80001C0B90104
:104B300040E061157105A9F120913402222309F4A6
:104B400043C0253009F442C02091E80023FD40C055
:104B50002091E80022FD32C02091E80020FFE9CF3B
:104B60004091F3002091F20030E0342BFC01CF01A2
:104B70006115710559F02830310540F48191809319
:104B8000F100615071092F5F3F4FF1CF41E02830B4
:104B9000310509F040E02091E8002E772093E800ED
:104BA000C8CF4111C9CF0AC080913402882361F077
:104BB000853061F08091E80083FD0AC08091E800B3
:104BC00082FFF2CF80E0089582E0089583E00895A7
:104BD00081E0089520913B0230913C02261737076F
:104BE00048F06115710539F42091E8002E77209383
:104BF000E80001C0B901FC0120E06115710591F1E7
:104C000080913402882309F440C0853009F43FC004
:104C10008091E80083FD3DC08091E80082FD2FC0B7
:104C20008091E80080FFE9CF2091F3008091F200AD
:104C300090E0922B6115710559F08830910540F490
:104C400024912093F1003196615071090196F2CFC1
:104C500021E0089709F020E08091E8008E778093AA
:104C6000E800CBCF2111CCCF0AC080913402882339
:104C700061F0853061F08091E80083FD0AC0809189
:104C8000E80082FFF2CF80E0089582E0089583E09B
:104C9000089581E00895982F973058F59093E90092
:104CA000981739F07091EC002091ED005091F000D0
:104CB00003C0242F762F50E021FF19C03091EB0064
:104CC0003E7F3093EB003091ED003D7F3093ED005F
:104CD0003091EB0031603093EB007093EC00209347
:104CE000ED005093F0002091EE0027FF07C09F5F7A
:104CF000D3CF8F708093E90081E0089580E008951C
:104D00008091350287FF11C08091E80082FD05C0C7
:104D1000809134028111F8CF11C08091E8008B7727
:104D20000BC080913402882349F08091E80080FF15
:104D3000F8CF8091E8008E778093E8000895209165
:104D4000E4003091E50095E64091EC00842F8170FD
:104D500040FF22C08091E80080FD1CC08091340299
:104D6000882391F0853091F08091EB0085FD10C093
:104D70004091E4005091E5004217530729F39A014E
:104D8000915011F784E0089582E0089583E008953A
:104D900081E0089580E008954091E80042FFDECF71
:104DA00008950E943F270E944727E0EEF0E08081AF
:104DB00081608083E8EDF0E080818F77808319BC8B
:104DC000A7EDB0E08C918E7F8C9380818F7E808365
:104DD0001092330208950F931F93CF93DF930E9495
:104DE0003F270E944727C8EDD0E088818F778883CE
:104DF00088818068888388818F7D888319BC109220
:104E0000340210923002109232021092310200EEFF
:104E100010E0F80180818B7F8083888181608883A6
:104E200042E060E080E00E944B26E1EEF0E080810D
:104E30008E7F8083E2EEF0E08081816080838081DC
:104E400088608083F80180818E7F80838881806183
:104E50008883DF91CF911F910F910895E8EDF0E0E5
:104E600080818F7E8083E7EDF0E0808181608083A8
:104E700084E082BF81E0809333020C94EB26E8ED5E
:104E8000F0E080818E7F80831092E200089510927E
:104E9000DA001092E10008951F920F920FB60F9260
:104EA00011242F933F934F935F936F937F938F932F
:104EB0009F93AF93BF93EF93FF938091E10082FFA5
:104EC0000BC08091E20082FF07C08091E1008B7FE0
:104ED0008093E1000E945B238091DA0080FF1FC075
:104EE0008091D80080FF1BC08091DA008E7F809374
:104EF000DA008091D90080FF0DC080E189BD82E198
:104F000089BD09B400FEFDCF81E0809334020E9488
:104F1000342305C019BC109234020E9446238091AC
:104F2000E10080FF19C08091E20080FF15C08091F0
:104F3000E2008E7F8093E2008091E20080618093A6
:104F4000E2008091D80080628093D80019BC85E08F
:104F5000809334020E9451238091E10084FF30C08D
:104F60008091E20084FF2CC080E189BD82E189BD8F
:104F700009B400FEFDCF8091D8008F7D8093D800CA
:104F80008091E1008F7E8093E1008091E2008F7E2E
:104F90008093E2008091E20081608093E200809142
:104FA0003002882311F084E007C08091E30087FD80
:104FB00002C081E001C083E0809334020E94552347
:104FC0008091E10083FF29C08091E20083FF25C02A
:104FD0008091E100877F8093E10082E0809334023A
:104FE000109230028091E1008E7F8093E1008091E9
:104FF000E2008E7F8093E2008091E20080618093E6
:10500000E20042E060E080E00E944B268091F000E8
:1050100088608093F0000E944D23FF91EF91BF9133
:10502000AF919F918F917F916F915F914F913F9140
:105030002F910F900FBE0F901F9018951F920F92F7
:105040000FB60F9211242F933F934F935F936F935B
:105050007F938F939F93AF93BF93CF93DF93EF9300
:10506000FF93C091E900CF708091EC00D82FD170F0
:1050700080FDD0E81092E9008091F000877F809356
:10508000F00078940E9462281092E9008091F0006C
:1050900088608093F000CD2BCF70C093E900FF9122
:1050A000EF91DF91CF91BF91AF919F918F917F91C0
:1050B0006F915F914F913F912F910F900FBE0F9085
:1050C0001F9018951F93CF93DF93CDB7DEB7AA97A4
:1050D0000FB6F894DEBF0FBECDBFE5E3F2E088E087
:1050E0008E0F9091F10091938E13FBCF0E94B52308
:1050F0008091E80083FF28C18091350290913602AB
:10510000492F50E04A30510508F01EC1FA01E5561A
:10511000FF4F0C94F729803821F0823809F014C130
:1051200008C08091310290913202992389F0826007
:105130000FC0809139028F70873008F005C18093CD
:10514000E9008091EB0085FB882780F91092E90047
:105150009091E800977F9093E8008093F10010927F
:10516000F100D0C0282F2D7F09F0EEC0882319F060
:10517000823061F0E9C080913702813009F0E4C0EB
:10518000933009F080E0809332022EC08091370284
:1051900081112AC0809139028F702FEF280F26309D
:1051A00008F0D2C08093E9002091EB0020FF1CC0E2
:1051B000933021F48091EB00806214C09091EB0059
:1051C00090619093EB0021E030E0A90102C0440F10
:1051D000551F8A95E2F74093EA001092EA00809109
:1051E000EB0088608093EB001092E9008091E8006A
:1051F000877F8093E8000E948026A6C08111A4C00A
:10520000109137021F778091E3008078812B809383
:10521000E3008091E800877F8093E8000E94802669
:105220008091E80080FFFCCF8091E300806880934C
:10523000E300111102C082E001C083E080933402D8
:1052400083C08058823008F07FC0809137029091EF
:1052500038028C3D53E0950779F583E08A838AE232
:1052600089834FB7F894DE01139620E03EE051E2C7
:10527000E32FF0E050935700E49120FF03C0E29544
:10528000EF703F5FEF708E2F90E0EA3010F0C7961E
:1052900001C0C0968D939D932F5F243149F74FBF76
:1052A0008091E800877F8093E8006AE270E0CE0199
:1052B00001960E94872515C06091390270913A02CB
:1052C000AE014F5F5F4F0E94AE24BC01892BE1F11C
:1052D0009091E800977F9093E80089819A810E94DD
:1052E000EA258091E8008B778093E8002DC0803814
:1052F00059F58091E800877F8093E8008091300223
:105300008093F1008091E8008E7773CF81111CC0EB
:10531000909137029230C0F48091E800877F8093AB
:10532000E800909330020E94802680913002811123
:1053300006C08091E30087FD02C081E001C084E0E7
:10534000809334020E949C238091E80083FF0AC06E
:105350008091E800877F8093E8008091EB00806275
:105360008093EB00AA960FB6F894DEBF0FBECDBFB8
:10537000DF91CF911F910895CF93809134028823BC
:10538000A1F0C091E900CF709091EC00892F81705D
:1053900090FD80E8C82B1092E9008091E80083FD21
:1053A0000E946228CF70C093E900CF910895991BA5
:1053B00079E004C0991F961708F0961B881F7A950C
:1053C000C9F78095089597FB072E16F4009407D02F
:1053D00077FD09D00E94FD2907FC05D03EF4909589
:1053E00081959F4F0895709561957F4F0895EE0FB9
:1053F000FF1F0590F491E02D0994AA1BBB1B51E1FE
:1054000007C0AA1FBB1FA617B70710F0A61BB70B34
:10541000881F991F5A95A9F780959095BC01CD01D9
:105420000895F999FECF92BD81BDF89A992780B56C
:105430000895A8E1B0E042E050E00C94392A262F0C
:10544000F999FECF92BD81BDF89A019700B402167A
:1054500039F01FBA20BD0FB6F894FA9AF99A0FBE28
:1054600008950196272F0E94202A0C941F2ADC0100
:10547000CB01FC01F999FECF06C0F2BDE1BDF89A5F
:10548000319600B40D9241505040B8F70895F89409
:02549000FFCF4C
:10549200D2012808140A321EDF21E022B5227F221F
:1054A20045220197663534C69436F6F796379091C1
:1054B200939201020304050607080900404D3622B3
:1054C20039C30C760C400C1E0CE50B580B710B8A81
:0654D2000BA30BC30B004D
:00000001FF
